{
	"contracts/Token.sol": {
		"BuddyToken": {
			"abi": [
				{
					"inputs": [],
					"stateMutability": "nonpayable",
					"type": "constructor"
				},
				{
					"anonymous": false,
					"inputs": [
						{
							"indexed": true,
							"internalType": "address",
							"name": "owner",
							"type": "address"
						},
						{
							"indexed": true,
							"internalType": "address",
							"name": "spender",
							"type": "address"
						},
						{
							"indexed": false,
							"internalType": "uint256",
							"name": "value",
							"type": "uint256"
						}
					],
					"name": "Approval",
					"type": "event"
				},
				{
					"anonymous": false,
					"inputs": [
						{
							"indexed": true,
							"internalType": "address",
							"name": "from",
							"type": "address"
						},
						{
							"indexed": true,
							"internalType": "address",
							"name": "to",
							"type": "address"
						},
						{
							"indexed": false,
							"internalType": "uint256",
							"name": "value",
							"type": "uint256"
						}
					],
					"name": "Transfer",
					"type": "event"
				},
				{
					"inputs": [
						{
							"internalType": "address",
							"name": "",
							"type": "address"
						},
						{
							"internalType": "address",
							"name": "",
							"type": "address"
						}
					],
					"name": "allowance",
					"outputs": [
						{
							"internalType": "uint256",
							"name": "",
							"type": "uint256"
						}
					],
					"stateMutability": "view",
					"type": "function"
				},
				{
					"inputs": [
						{
							"internalType": "address",
							"name": "spender",
							"type": "address"
						},
						{
							"internalType": "uint256",
							"name": "value",
							"type": "uint256"
						}
					],
					"name": "approve",
					"outputs": [
						{
							"internalType": "bool",
							"name": "",
							"type": "bool"
						}
					],
					"stateMutability": "nonpayable",
					"type": "function"
				},
				{
					"inputs": [
						{
							"internalType": "address",
							"name": "owner",
							"type": "address"
						}
					],
					"name": "balanceOf",
					"outputs": [
						{
							"internalType": "uint256",
							"name": "",
							"type": "uint256"
						}
					],
					"stateMutability": "view",
					"type": "function"
				},
				{
					"inputs": [
						{
							"internalType": "address",
							"name": "",
							"type": "address"
						}
					],
					"name": "balances",
					"outputs": [
						{
							"internalType": "uint256",
							"name": "",
							"type": "uint256"
						}
					],
					"stateMutability": "view",
					"type": "function"
				},
				{
					"inputs": [
						{
							"internalType": "uint256",
							"name": "amount",
							"type": "uint256"
						}
					],
					"name": "burn",
					"outputs": [
						{
							"internalType": "bool",
							"name": "",
							"type": "bool"
						}
					],
					"stateMutability": "nonpayable",
					"type": "function"
				},
				{
					"inputs": [],
					"name": "decimals",
					"outputs": [
						{
							"internalType": "uint256",
							"name": "",
							"type": "uint256"
						}
					],
					"stateMutability": "view",
					"type": "function"
				},
				{
					"inputs": [],
					"name": "name",
					"outputs": [
						{
							"internalType": "string",
							"name": "",
							"type": "string"
						}
					],
					"stateMutability": "view",
					"type": "function"
				},
				{
					"inputs": [],
					"name": "symbol",
					"outputs": [
						{
							"internalType": "string",
							"name": "",
							"type": "string"
						}
					],
					"stateMutability": "view",
					"type": "function"
				},
				{
					"inputs": [],
					"name": "totalSupply",
					"outputs": [
						{
							"internalType": "uint256",
							"name": "",
							"type": "uint256"
						}
					],
					"stateMutability": "view",
					"type": "function"
				},
				{
					"inputs": [
						{
							"internalType": "address",
							"name": "to",
							"type": "address"
						},
						{
							"internalType": "uint256",
							"name": "value",
							"type": "uint256"
						}
					],
					"name": "transfer",
					"outputs": [
						{
							"internalType": "bool",
							"name": "",
							"type": "bool"
						}
					],
					"stateMutability": "nonpayable",
					"type": "function"
				},
				{
					"inputs": [
						{
							"internalType": "address",
							"name": "from",
							"type": "address"
						},
						{
							"internalType": "address",
							"name": "to",
							"type": "address"
						},
						{
							"internalType": "uint256",
							"name": "value",
							"type": "uint256"
						}
					],
					"name": "transferFrom",
					"outputs": [
						{
							"internalType": "bool",
							"name": "",
							"type": "bool"
						}
					],
					"stateMutability": "nonpayable",
					"type": "function"
				}
			],
			"devdoc": {
				"kind": "dev",
				"methods": {},
				"version": 1
			},
			"evm": {
				"assembly": "    /* \"contracts/Token.sol\":25:1850  contract BuddyToken {... */\n  mstore(0x40, 0x80)\n    /* \"contracts/Token.sol\":190:208  10000000 * 10 ** 5 */\n  0xe8d4a51000\n    /* \"contracts/Token.sol\":164:208  uint public totalSupply = 10000000 * 10 ** 5 */\n  0x02\n  sstore\n    /* \"contracts/Token.sol\":216:249  string public name = \"BuddyToken\" */\n  mload(0x40)\n  dup1\n  0x40\n  add\n  0x40\n  mstore\n  dup1\n  0x0a\n  dup2\n  mstore\n  0x20\n  add\n  0x4275646479546f6b656e00000000000000000000000000000000000000000000\n  dup2\n  mstore\n  pop\n  0x03\n  swap1\n  dup1\n  mload\n  swap1\n  0x20\n  add\n  swap1\n  tag_1\n  swap3\n  swap2\n  swap1\n  tag_2\n  jump\t// in\ntag_1:\n  pop\n    /* \"contracts/Token.sol\":255:285  string public symbol = \"BUDDY\" */\n  mload(0x40)\n  dup1\n  0x40\n  add\n  0x40\n  mstore\n  dup1\n  0x05\n  dup2\n  mstore\n  0x20\n  add\n  0x4255444459000000000000000000000000000000000000000000000000000000\n  dup2\n  mstore\n  pop\n  0x04\n  swap1\n  dup1\n  mload\n  swap1\n  0x20\n  add\n  swap1\n  tag_3\n  swap3\n  swap2\n  swap1\n  tag_2\n  jump\t// in\ntag_3:\n  pop\n    /* \"contracts/Token.sol\":314:315  5 */\n  0x05\n    /* \"contracts/Token.sol\":291:315  uint public decimals = 5 */\n  dup1\n  sstore\n    /* \"contracts/Token.sol\":485:550  constructor() {... */\n  callvalue\n  dup1\n  iszero\n  tag_4\n  jumpi\n  0x00\n  dup1\n  revert\ntag_4:\n  pop\n    /* \"contracts/Token.sol\":532:543  totalSupply */\n  sload(0x02)\n    /* \"contracts/Token.sol\":509:517  balances */\n  0x00\n    /* \"contracts/Token.sol\":509:529  balances[msg.sender] */\n  dup1\n    /* \"contracts/Token.sol\":518:528  msg.sender */\n  caller\n    /* \"contracts/Token.sol\":509:529  balances[msg.sender] */\n  0xffffffffffffffffffffffffffffffffffffffff\n  and\n  0xffffffffffffffffffffffffffffffffffffffff\n  and\n  dup2\n  mstore\n  0x20\n  add\n  swap1\n  dup2\n  mstore\n  0x20\n  add\n  0x00\n  keccak256\n    /* \"contracts/Token.sol\":509:543  balances[msg.sender] = totalSupply */\n  dup2\n  swap1\n  sstore\n  pop\n    /* \"contracts/Token.sol\":25:1850  contract BuddyToken {... */\n  jump(tag_7)\ntag_2:\n  dup3\n  dup1\n  sload\n  tag_8\n  swap1\n  tag_9\n  jump\t// in\ntag_8:\n  swap1\n  0x00\n  mstore\n  keccak256(0x00, 0x20)\n  swap1\n  0x1f\n  add\n  0x20\n  swap1\n  div\n  dup2\n  add\n  swap3\n  dup3\n  tag_11\n  jumpi\n  0x00\n  dup6\n  sstore\n  jump(tag_10)\ntag_11:\n  dup3\n  0x1f\n  lt\n  tag_12\n  jumpi\n  dup1\n  mload\n  not(0xff)\n  and\n  dup4\n  dup1\n  add\n  or\n  dup6\n  sstore\n  jump(tag_10)\ntag_12:\n  dup3\n  dup1\n  add\n  0x01\n  add\n  dup6\n  sstore\n  dup3\n  iszero\n  tag_10\n  jumpi\n  swap2\n  dup3\n  add\ntag_13:\n  dup3\n  dup2\n  gt\n  iszero\n  tag_14\n  jumpi\n  dup3\n  mload\n  dup3\n  sstore\n  swap2\n  0x20\n  add\n  swap2\n  swap1\n  0x01\n  add\n  swap1\n  jump(tag_13)\ntag_14:\ntag_10:\n  pop\n  swap1\n  pop\n  tag_15\n  swap2\n  swap1\n  tag_16\n  jump\t// in\ntag_15:\n  pop\n  swap1\n  jump\t// out\ntag_16:\ntag_17:\n  dup1\n  dup3\n  gt\n  iszero\n  tag_18\n  jumpi\n  0x00\n  dup2\n  0x00\n  swap1\n  sstore\n  pop\n  0x01\n  add\n  jump(tag_17)\ntag_18:\n  pop\n  swap1\n  jump\t// out\n    /* \"#utility.yul\":7:327   */\ntag_9:\n  0x00\n    /* \"#utility.yul\":88:89   */\n  0x02\n    /* \"#utility.yul\":82:86   */\n  dup3\n    /* \"#utility.yul\":78:90   */\n  div\n    /* \"#utility.yul\":68:90   */\n  swap1\n  pop\n    /* \"#utility.yul\":135:136   */\n  0x01\n    /* \"#utility.yul\":129:133   */\n  dup3\n    /* \"#utility.yul\":125:137   */\n  and\n    /* \"#utility.yul\":156:174   */\n  dup1\n    /* \"#utility.yul\":146:148   */\n  tag_21\n  jumpi\n    /* \"#utility.yul\":212:216   */\n  0x7f\n    /* \"#utility.yul\":204:210   */\n  dup3\n    /* \"#utility.yul\":200:217   */\n  and\n    /* \"#utility.yul\":190:217   */\n  swap2\n  pop\n    /* \"#utility.yul\":146:148   */\ntag_21:\n    /* \"#utility.yul\":274:276   */\n  0x20\n    /* \"#utility.yul\":266:272   */\n  dup3\n    /* \"#utility.yul\":263:277   */\n  lt\n    /* \"#utility.yul\":243:261   */\n  dup2\n    /* \"#utility.yul\":240:278   */\n  eq\n    /* \"#utility.yul\":237:239   */\n  iszero\n  tag_22\n  jumpi\n    /* \"#utility.yul\":293:311   */\n  tag_23\n  tag_24\n  jump\t// in\ntag_23:\n    /* \"#utility.yul\":237:239   */\ntag_22:\n    /* \"#utility.yul\":58:327   */\n  pop\n  swap2\n  swap1\n  pop\n  jump\t// out\n    /* \"#utility.yul\":333:513   */\ntag_24:\n    /* \"#utility.yul\":381:458   */\n  0x4e487b7100000000000000000000000000000000000000000000000000000000\n    /* \"#utility.yul\":378:379   */\n  0x00\n    /* \"#utility.yul\":371:459   */\n  mstore\n    /* \"#utility.yul\":478:482   */\n  0x22\n    /* \"#utility.yul\":475:476   */\n  0x04\n    /* \"#utility.yul\":468:483   */\n  mstore\n    /* \"#utility.yul\":502:506   */\n  0x24\n    /* \"#utility.yul\":499:500   */\n  0x00\n    /* \"#utility.yul\":492:507   */\n  revert\n    /* \"contracts/Token.sol\":25:1850  contract BuddyToken {... */\ntag_7:\n  dataSize(sub_0)\n  dup1\n  dataOffset(sub_0)\n  0x00\n  codecopy\n  0x00\n  return\nstop\n\nsub_0: assembly {\n        /* \"contracts/Token.sol\":25:1850  contract BuddyToken {... */\n      mstore(0x40, 0x80)\n      callvalue\n      dup1\n      iszero\n      tag_1\n      jumpi\n      0x00\n      dup1\n      revert\n    tag_1:\n      pop\n      jumpi(tag_2, lt(calldatasize, 0x04))\n      shr(0xe0, calldataload(0x00))\n      dup1\n      0x313ce567\n      gt\n      tag_14\n      jumpi\n      dup1\n      0x313ce567\n      eq\n      tag_8\n      jumpi\n      dup1\n      0x42966c68\n      eq\n      tag_9\n      jumpi\n      dup1\n      0x70a08231\n      eq\n      tag_10\n      jumpi\n      dup1\n      0x95d89b41\n      eq\n      tag_11\n      jumpi\n      dup1\n      0xa9059cbb\n      eq\n      tag_12\n      jumpi\n      dup1\n      0xdd62ed3e\n      eq\n      tag_13\n      jumpi\n      jump(tag_2)\n    tag_14:\n      dup1\n      0x06fdde03\n      eq\n      tag_3\n      jumpi\n      dup1\n      0x095ea7b3\n      eq\n      tag_4\n      jumpi\n      dup1\n      0x18160ddd\n      eq\n      tag_5\n      jumpi\n      dup1\n      0x23b872dd\n      eq\n      tag_6\n      jumpi\n      dup1\n      0x27e235e3\n      eq\n      tag_7\n      jumpi\n    tag_2:\n      0x00\n      dup1\n      revert\n        /* \"contracts/Token.sol\":216:249  string public name = \"BuddyToken\" */\n    tag_3:\n      tag_15\n      tag_16\n      jump\t// in\n    tag_15:\n      mload(0x40)\n      tag_17\n      swap2\n      swap1\n      tag_18\n      jump\t// in\n    tag_17:\n      mload(0x40)\n      dup1\n      swap2\n      sub\n      swap1\n      return\n        /* \"contracts/Token.sol\":1318:1516  function approve(address spender, uint value) public returns (bool) {... */\n    tag_4:\n      tag_19\n      0x04\n      dup1\n      calldatasize\n      sub\n      dup2\n      add\n      swap1\n      tag_20\n      swap2\n      swap1\n      tag_21\n      jump\t// in\n    tag_20:\n      tag_22\n      jump\t// in\n    tag_19:\n      mload(0x40)\n      tag_23\n      swap2\n      swap1\n      tag_24\n      jump\t// in\n    tag_23:\n      mload(0x40)\n      dup1\n      swap2\n      sub\n      swap1\n      return\n        /* \"contracts/Token.sol\":164:208  uint public totalSupply = 10000000 * 10 ** 5 */\n    tag_5:\n      tag_25\n      tag_26\n      jump\t// in\n    tag_25:\n      mload(0x40)\n      tag_27\n      swap2\n      swap1\n      tag_28\n      jump\t// in\n    tag_27:\n      mload(0x40)\n      dup1\n      swap2\n      sub\n      swap1\n      return\n        /* \"contracts/Token.sol\":954:1308  function transferFrom(address from, address to, uint value) public returns(bool) {... */\n    tag_6:\n      tag_29\n      0x04\n      dup1\n      calldatasize\n      sub\n      dup2\n      add\n      swap1\n      tag_30\n      swap2\n      swap1\n      tag_31\n      jump\t// in\n    tag_30:\n      tag_32\n      jump\t// in\n    tag_29:\n      mload(0x40)\n      tag_33\n      swap2\n      swap1\n      tag_24\n      jump\t// in\n    tag_33:\n      mload(0x40)\n      dup1\n      swap2\n      sub\n      swap1\n      return\n        /* \"contracts/Token.sol\":51:91  mapping(address => uint) public balances */\n    tag_7:\n      tag_34\n      0x04\n      dup1\n      calldatasize\n      sub\n      dup2\n      add\n      swap1\n      tag_35\n      swap2\n      swap1\n      tag_36\n      jump\t// in\n    tag_35:\n      tag_37\n      jump\t// in\n    tag_34:\n      mload(0x40)\n      tag_38\n      swap2\n      swap1\n      tag_28\n      jump\t// in\n    tag_38:\n      mload(0x40)\n      dup1\n      swap2\n      sub\n      swap1\n      return\n        /* \"contracts/Token.sol\":291:315  uint public decimals = 5 */\n    tag_8:\n      tag_39\n      tag_40\n      jump\t// in\n    tag_39:\n      mload(0x40)\n      tag_41\n      swap2\n      swap1\n      tag_28\n      jump\t// in\n    tag_41:\n      mload(0x40)\n      dup1\n      swap2\n      sub\n      swap1\n      return\n        /* \"contracts/Token.sol\":1522:1848  function burn(uint amount) public returns (bool) {... */\n    tag_9:\n      tag_42\n      0x04\n      dup1\n      calldatasize\n      sub\n      dup2\n      add\n      swap1\n      tag_43\n      swap2\n      swap1\n      tag_44\n      jump\t// in\n    tag_43:\n      tag_45\n      jump\t// in\n    tag_42:\n      mload(0x40)\n      tag_46\n      swap2\n      swap1\n      tag_24\n      jump\t// in\n    tag_46:\n      mload(0x40)\n      dup1\n      swap2\n      sub\n      swap1\n      return\n        /* \"contracts/Token.sol\":560:659  function balanceOf(address owner) public view returns(uint) {... */\n    tag_10:\n      tag_47\n      0x04\n      dup1\n      calldatasize\n      sub\n      dup2\n      add\n      swap1\n      tag_48\n      swap2\n      swap1\n      tag_36\n      jump\t// in\n    tag_48:\n      tag_49\n      jump\t// in\n    tag_47:\n      mload(0x40)\n      tag_50\n      swap2\n      swap1\n      tag_28\n      jump\t// in\n    tag_50:\n      mload(0x40)\n      dup1\n      swap2\n      sub\n      swap1\n      return\n        /* \"contracts/Token.sol\":255:285  string public symbol = \"BUDDY\" */\n    tag_11:\n      tag_51\n      tag_52\n      jump\t// in\n    tag_51:\n      mload(0x40)\n      tag_53\n      swap2\n      swap1\n      tag_18\n      jump\t// in\n    tag_53:\n      mload(0x40)\n      dup1\n      swap2\n      sub\n      swap1\n      return\n        /* \"contracts/Token.sol\":669:944  function transfer(address to, uint value) public returns(bool) {... */\n    tag_12:\n      tag_54\n      0x04\n      dup1\n      calldatasize\n      sub\n      dup2\n      add\n      swap1\n      tag_55\n      swap2\n      swap1\n      tag_21\n      jump\t// in\n    tag_55:\n      tag_56\n      jump\t// in\n    tag_54:\n      mload(0x40)\n      tag_57\n      swap2\n      swap1\n      tag_24\n      jump\t// in\n    tag_57:\n      mload(0x40)\n      dup1\n      swap2\n      sub\n      swap1\n      return\n        /* \"contracts/Token.sol\":97:158  mapping(address => mapping(address => uint)) public allowance */\n    tag_13:\n      tag_58\n      0x04\n      dup1\n      calldatasize\n      sub\n      dup2\n      add\n      swap1\n      tag_59\n      swap2\n      swap1\n      tag_60\n      jump\t// in\n    tag_59:\n      tag_61\n      jump\t// in\n    tag_58:\n      mload(0x40)\n      tag_62\n      swap2\n      swap1\n      tag_28\n      jump\t// in\n    tag_62:\n      mload(0x40)\n      dup1\n      swap2\n      sub\n      swap1\n      return\n        /* \"contracts/Token.sol\":216:249  string public name = \"BuddyToken\" */\n    tag_16:\n      0x03\n      dup1\n      sload\n      tag_63\n      swap1\n      tag_64\n      jump\t// in\n    tag_63:\n      dup1\n      0x1f\n      add\n      0x20\n      dup1\n      swap2\n      div\n      mul\n      0x20\n      add\n      mload(0x40)\n      swap1\n      dup2\n      add\n      0x40\n      mstore\n      dup1\n      swap3\n      swap2\n      swap1\n      dup2\n      dup2\n      mstore\n      0x20\n      add\n      dup3\n      dup1\n      sload\n      tag_65\n      swap1\n      tag_64\n      jump\t// in\n    tag_65:\n      dup1\n      iszero\n      tag_66\n      jumpi\n      dup1\n      0x1f\n      lt\n      tag_67\n      jumpi\n      0x0100\n      dup1\n      dup4\n      sload\n      div\n      mul\n      dup4\n      mstore\n      swap2\n      0x20\n      add\n      swap2\n      jump(tag_66)\n    tag_67:\n      dup3\n      add\n      swap2\n      swap1\n      0x00\n      mstore\n      keccak256(0x00, 0x20)\n      swap1\n    tag_68:\n      dup2\n      sload\n      dup2\n      mstore\n      swap1\n      0x01\n      add\n      swap1\n      0x20\n      add\n      dup1\n      dup4\n      gt\n      tag_68\n      jumpi\n      dup3\n      swap1\n      sub\n      0x1f\n      and\n      dup3\n      add\n      swap2\n    tag_66:\n      pop\n      pop\n      pop\n      pop\n      pop\n      dup2\n      jump\t// out\n        /* \"contracts/Token.sol\":1318:1516  function approve(address spender, uint value) public returns (bool) {... */\n    tag_22:\n        /* \"contracts/Token.sol\":1380:1384  bool */\n      0x00\n        /* \"contracts/Token.sol\":1429:1434  value */\n      dup2\n        /* \"contracts/Token.sol\":1396:1405  allowance */\n      0x01\n        /* \"contracts/Token.sol\":1396:1417  allowance[msg.sender] */\n      0x00\n        /* \"contracts/Token.sol\":1406:1416  msg.sender */\n      caller\n        /* \"contracts/Token.sol\":1396:1417  allowance[msg.sender] */\n      0xffffffffffffffffffffffffffffffffffffffff\n      and\n      0xffffffffffffffffffffffffffffffffffffffff\n      and\n      dup2\n      mstore\n      0x20\n      add\n      swap1\n      dup2\n      mstore\n      0x20\n      add\n      0x00\n      keccak256\n        /* \"contracts/Token.sol\":1396:1426  allowance[msg.sender][spender] */\n      0x00\n        /* \"contracts/Token.sol\":1418:1425  spender */\n      dup6\n        /* \"contracts/Token.sol\":1396:1426  allowance[msg.sender][spender] */\n      0xffffffffffffffffffffffffffffffffffffffff\n      and\n      0xffffffffffffffffffffffffffffffffffffffff\n      and\n      dup2\n      mstore\n      0x20\n      add\n      swap1\n      dup2\n      mstore\n      0x20\n      add\n      0x00\n      keccak256\n        /* \"contracts/Token.sol\":1396:1434  allowance[msg.sender][spender] = value */\n      dup2\n      swap1\n      sstore\n      pop\n        /* \"contracts/Token.sol\":1470:1477  spender */\n      dup3\n        /* \"contracts/Token.sol\":1449:1485  Approval(msg.sender, spender, value) */\n      0xffffffffffffffffffffffffffffffffffffffff\n      and\n        /* \"contracts/Token.sol\":1458:1468  msg.sender */\n      caller\n        /* \"contracts/Token.sol\":1449:1485  Approval(msg.sender, spender, value) */\n      0xffffffffffffffffffffffffffffffffffffffff\n      and\n      0x8c5be1e5ebec7d5bd14f71427d1e84f3dd0314c0f7b2291e5b200ac8c7c3b925\n        /* \"contracts/Token.sol\":1479:1484  value */\n      dup5\n        /* \"contracts/Token.sol\":1449:1485  Approval(msg.sender, spender, value) */\n      mload(0x40)\n      tag_70\n      swap2\n      swap1\n      tag_28\n      jump\t// in\n    tag_70:\n      mload(0x40)\n      dup1\n      swap2\n      sub\n      swap1\n      log3\n        /* \"contracts/Token.sol\":1502:1506  true */\n      0x01\n        /* \"contracts/Token.sol\":1495:1506  return true */\n      swap1\n      pop\n        /* \"contracts/Token.sol\":1318:1516  function approve(address spender, uint value) public returns (bool) {... */\n      swap3\n      swap2\n      pop\n      pop\n      jump\t// out\n        /* \"contracts/Token.sol\":164:208  uint public totalSupply = 10000000 * 10 ** 5 */\n    tag_26:\n      sload(0x02)\n      dup2\n      jump\t// out\n        /* \"contracts/Token.sol\":954:1308  function transferFrom(address from, address to, uint value) public returns(bool) {... */\n    tag_32:\n        /* \"contracts/Token.sol\":1029:1033  bool */\n      0x00\n        /* \"contracts/Token.sol\":1072:1077  value */\n      dup2\n        /* \"contracts/Token.sol\":1053:1068  balanceOf(from) */\n      tag_72\n        /* \"contracts/Token.sol\":1063:1067  from */\n      dup6\n        /* \"contracts/Token.sol\":1053:1062  balanceOf */\n      tag_49\n        /* \"contracts/Token.sol\":1053:1068  balanceOf(from) */\n      jump\t// in\n    tag_72:\n        /* \"contracts/Token.sol\":1053:1077  balanceOf(from) >= value */\n      lt\n      iszero\n        /* \"contracts/Token.sol\":1045:1097  require(balanceOf(from) >= value, 'balance too low') */\n      tag_73\n      jumpi\n      mload(0x40)\n      0x08c379a000000000000000000000000000000000000000000000000000000000\n      dup2\n      mstore\n      0x04\n      add\n      tag_74\n      swap1\n      tag_75\n      jump\t// in\n    tag_74:\n      mload(0x40)\n      dup1\n      swap2\n      sub\n      swap1\n      revert\n    tag_73:\n        /* \"contracts/Token.sol\":1146:1151  value */\n      dup2\n        /* \"contracts/Token.sol\":1115:1124  allowance */\n      0x01\n        /* \"contracts/Token.sol\":1115:1130  allowance[from] */\n      0x00\n        /* \"contracts/Token.sol\":1125:1129  from */\n      dup7\n        /* \"contracts/Token.sol\":1115:1130  allowance[from] */\n      0xffffffffffffffffffffffffffffffffffffffff\n      and\n      0xffffffffffffffffffffffffffffffffffffffff\n      and\n      dup2\n      mstore\n      0x20\n      add\n      swap1\n      dup2\n      mstore\n      0x20\n      add\n      0x00\n      keccak256\n        /* \"contracts/Token.sol\":1115:1142  allowance[from][msg.sender] */\n      0x00\n        /* \"contracts/Token.sol\":1131:1141  msg.sender */\n      caller\n        /* \"contracts/Token.sol\":1115:1142  allowance[from][msg.sender] */\n      0xffffffffffffffffffffffffffffffffffffffff\n      and\n      0xffffffffffffffffffffffffffffffffffffffff\n      and\n      dup2\n      mstore\n      0x20\n      add\n      swap1\n      dup2\n      mstore\n      0x20\n      add\n      0x00\n      keccak256\n      sload\n        /* \"contracts/Token.sol\":1115:1151  allowance[from][msg.sender] >= value */\n      lt\n      iszero\n        /* \"contracts/Token.sol\":1107:1173  require(allowance[from][msg.sender] >= value, 'allowance too low') */\n      tag_76\n      jumpi\n      mload(0x40)\n      0x08c379a000000000000000000000000000000000000000000000000000000000\n      dup2\n      mstore\n      0x04\n      add\n      tag_77\n      swap1\n      tag_78\n      jump\t// in\n    tag_77:\n      mload(0x40)\n      dup1\n      swap2\n      sub\n      swap1\n      revert\n    tag_76:\n        /* \"contracts/Token.sol\":1199:1204  value */\n      dup2\n        /* \"contracts/Token.sol\":1183:1191  balances */\n      0x00\n        /* \"contracts/Token.sol\":1183:1195  balances[to] */\n      dup1\n        /* \"contracts/Token.sol\":1192:1194  to */\n      dup6\n        /* \"contracts/Token.sol\":1183:1195  balances[to] */\n      0xffffffffffffffffffffffffffffffffffffffff\n      and\n      0xffffffffffffffffffffffffffffffffffffffff\n      and\n      dup2\n      mstore\n      0x20\n      add\n      swap1\n      dup2\n      mstore\n      0x20\n      add\n      0x00\n      keccak256\n      0x00\n        /* \"contracts/Token.sol\":1183:1204  balances[to] += value */\n      dup3\n      dup3\n      sload\n      tag_79\n      swap2\n      swap1\n      tag_80\n      jump\t// in\n    tag_79:\n      swap3\n      pop\n      pop\n      dup2\n      swap1\n      sstore\n      pop\n        /* \"contracts/Token.sol\":1232:1237  value */\n      dup2\n        /* \"contracts/Token.sol\":1214:1222  balances */\n      0x00\n        /* \"contracts/Token.sol\":1214:1228  balances[from] */\n      dup1\n        /* \"contracts/Token.sol\":1223:1227  from */\n      dup7\n        /* \"contracts/Token.sol\":1214:1228  balances[from] */\n      0xffffffffffffffffffffffffffffffffffffffff\n      and\n      0xffffffffffffffffffffffffffffffffffffffff\n      and\n      dup2\n      mstore\n      0x20\n      add\n      swap1\n      dup2\n      mstore\n      0x20\n      add\n      0x00\n      keccak256\n      0x00\n        /* \"contracts/Token.sol\":1214:1237  balances[from] -= value */\n      dup3\n      dup3\n      sload\n      tag_81\n      swap2\n      swap1\n      tag_82\n      jump\t// in\n    tag_81:\n      swap3\n      pop\n      pop\n      dup2\n      swap1\n      sstore\n      pop\n        /* \"contracts/Token.sol\":1267:1269  to */\n      dup3\n        /* \"contracts/Token.sol\":1252:1277  Transfer(from, to, value) */\n      0xffffffffffffffffffffffffffffffffffffffff\n      and\n        /* \"contracts/Token.sol\":1261:1265  from */\n      dup5\n        /* \"contracts/Token.sol\":1252:1277  Transfer(from, to, value) */\n      0xffffffffffffffffffffffffffffffffffffffff\n      and\n      0xddf252ad1be2c89b69c2b068fc378daa952ba7f163c4a11628f55a4df523b3ef\n        /* \"contracts/Token.sol\":1271:1276  value */\n      dup5\n        /* \"contracts/Token.sol\":1252:1277  Transfer(from, to, value) */\n      mload(0x40)\n      tag_83\n      swap2\n      swap1\n      tag_28\n      jump\t// in\n    tag_83:\n      mload(0x40)\n      dup1\n      swap2\n      sub\n      swap1\n      log3\n        /* \"contracts/Token.sol\":1294:1298  true */\n      0x01\n        /* \"contracts/Token.sol\":1287:1298  return true */\n      swap1\n      pop\n        /* \"contracts/Token.sol\":954:1308  function transferFrom(address from, address to, uint value) public returns(bool) {... */\n      swap4\n      swap3\n      pop\n      pop\n      pop\n      jump\t// out\n        /* \"contracts/Token.sol\":51:91  mapping(address => uint) public balances */\n    tag_37:\n      mstore(0x20, 0x00)\n      dup1\n      0x00\n      mstore\n      keccak256(0x00, 0x40)\n      0x00\n      swap2\n      pop\n      swap1\n      pop\n      sload\n      dup2\n      jump\t// out\n        /* \"contracts/Token.sol\":291:315  uint public decimals = 5 */\n    tag_40:\n      sload(0x05)\n      dup2\n      jump\t// out\n        /* \"contracts/Token.sol\":1522:1848  function burn(uint amount) public returns (bool) {... */\n    tag_45:\n        /* \"contracts/Token.sol\":1565:1569  bool */\n      0x00\n        /* \"contracts/Token.sol\":1614:1620  amount */\n      dup2\n        /* \"contracts/Token.sol\":1589:1610  balanceOf(msg.sender) */\n      tag_85\n        /* \"contracts/Token.sol\":1599:1609  msg.sender */\n      caller\n        /* \"contracts/Token.sol\":1589:1598  balanceOf */\n      tag_49\n        /* \"contracts/Token.sol\":1589:1610  balanceOf(msg.sender) */\n      jump\t// in\n    tag_85:\n        /* \"contracts/Token.sol\":1589:1620  balanceOf(msg.sender) >= amount */\n      lt\n      iszero\n        /* \"contracts/Token.sol\":1581:1645  require(balanceOf(msg.sender) >= amount, \"Insufficient balance\") */\n      tag_86\n      jumpi\n      mload(0x40)\n      0x08c379a000000000000000000000000000000000000000000000000000000000\n      dup2\n      mstore\n      0x04\n      add\n      tag_87\n      swap1\n      tag_88\n      jump\t// in\n    tag_87:\n      mload(0x40)\n      dup1\n      swap2\n      sub\n      swap1\n      revert\n    tag_86:\n        /* \"contracts/Token.sol\":1679:1685  amount */\n      dup2\n        /* \"contracts/Token.sol\":1655:1663  balances */\n      0x00\n        /* \"contracts/Token.sol\":1655:1675  balances[msg.sender] */\n      dup1\n        /* \"contracts/Token.sol\":1664:1674  msg.sender */\n      caller\n        /* \"contracts/Token.sol\":1655:1675  balances[msg.sender] */\n      0xffffffffffffffffffffffffffffffffffffffff\n      and\n      0xffffffffffffffffffffffffffffffffffffffff\n      and\n      dup2\n      mstore\n      0x20\n      add\n      swap1\n      dup2\n      mstore\n      0x20\n      add\n      0x00\n      keccak256\n      0x00\n        /* \"contracts/Token.sol\":1655:1685  balances[msg.sender] -= amount */\n      dup3\n      dup3\n      sload\n      tag_89\n      swap2\n      swap1\n      tag_82\n      jump\t// in\n    tag_89:\n      swap3\n      pop\n      pop\n      dup2\n      swap1\n      sstore\n      pop\n        /* \"contracts/Token.sol\":1710:1716  amount */\n      dup2\n        /* \"contracts/Token.sol\":1695:1706  totalSupply */\n      0x02\n      0x00\n        /* \"contracts/Token.sol\":1695:1716  totalSupply -= amount */\n      dup3\n      dup3\n      sload\n      tag_90\n      swap2\n      swap1\n      tag_82\n      jump\t// in\n    tag_90:\n      swap3\n      pop\n      pop\n      dup2\n      swap1\n      sstore\n      pop\n        /* \"contracts/Token.sol\":1760:1761  0 */\n      0x00\n        /* \"contracts/Token.sol\":1731:1771  Transfer(msg.sender, address(0), amount) */\n      0xffffffffffffffffffffffffffffffffffffffff\n      and\n        /* \"contracts/Token.sol\":1740:1750  msg.sender */\n      caller\n        /* \"contracts/Token.sol\":1731:1771  Transfer(msg.sender, address(0), amount) */\n      0xffffffffffffffffffffffffffffffffffffffff\n      and\n      0xddf252ad1be2c89b69c2b068fc378daa952ba7f163c4a11628f55a4df523b3ef\n        /* \"contracts/Token.sol\":1764:1770  amount */\n      dup5\n        /* \"contracts/Token.sol\":1731:1771  Transfer(msg.sender, address(0), amount) */\n      mload(0x40)\n      tag_91\n      swap2\n      swap1\n      tag_28\n      jump\t// in\n    tag_91:\n      mload(0x40)\n      dup1\n      swap2\n      sub\n      swap1\n      log3\n        /* \"contracts/Token.sol\":1837:1841  true */\n      0x01\n        /* \"contracts/Token.sol\":1830:1841  return true */\n      swap1\n      pop\n        /* \"contracts/Token.sol\":1522:1848  function burn(uint amount) public returns (bool) {... */\n      swap2\n      swap1\n      pop\n      jump\t// out\n        /* \"contracts/Token.sol\":560:659  function balanceOf(address owner) public view returns(uint) {... */\n    tag_49:\n        /* \"contracts/Token.sol\":614:618  uint */\n      0x00\n        /* \"contracts/Token.sol\":637:645  balances */\n      dup1\n        /* \"contracts/Token.sol\":637:652  balances[owner] */\n      0x00\n        /* \"contracts/Token.sol\":646:651  owner */\n      dup4\n        /* \"contracts/Token.sol\":637:652  balances[owner] */\n      0xffffffffffffffffffffffffffffffffffffffff\n      and\n      0xffffffffffffffffffffffffffffffffffffffff\n      and\n      dup2\n      mstore\n      0x20\n      add\n      swap1\n      dup2\n      mstore\n      0x20\n      add\n      0x00\n      keccak256\n      sload\n        /* \"contracts/Token.sol\":630:652  return balances[owner] */\n      swap1\n      pop\n        /* \"contracts/Token.sol\":560:659  function balanceOf(address owner) public view returns(uint) {... */\n      swap2\n      swap1\n      pop\n      jump\t// out\n        /* \"contracts/Token.sol\":255:285  string public symbol = \"BUDDY\" */\n    tag_52:\n      0x04\n      dup1\n      sload\n      tag_93\n      swap1\n      tag_64\n      jump\t// in\n    tag_93:\n      dup1\n      0x1f\n      add\n      0x20\n      dup1\n      swap2\n      div\n      mul\n      0x20\n      add\n      mload(0x40)\n      swap1\n      dup2\n      add\n      0x40\n      mstore\n      dup1\n      swap3\n      swap2\n      swap1\n      dup2\n      dup2\n      mstore\n      0x20\n      add\n      dup3\n      dup1\n      sload\n      tag_94\n      swap1\n      tag_64\n      jump\t// in\n    tag_94:\n      dup1\n      iszero\n      tag_95\n      jumpi\n      dup1\n      0x1f\n      lt\n      tag_96\n      jumpi\n      0x0100\n      dup1\n      dup4\n      sload\n      div\n      mul\n      dup4\n      mstore\n      swap2\n      0x20\n      add\n      swap2\n      jump(tag_95)\n    tag_96:\n      dup3\n      add\n      swap2\n      swap1\n      0x00\n      mstore\n      keccak256(0x00, 0x20)\n      swap1\n    tag_97:\n      dup2\n      sload\n      dup2\n      mstore\n      swap1\n      0x01\n      add\n      swap1\n      0x20\n      add\n      dup1\n      dup4\n      gt\n      tag_97\n      jumpi\n      dup3\n      swap1\n      sub\n      0x1f\n      and\n      dup3\n      add\n      swap2\n    tag_95:\n      pop\n      pop\n      pop\n      pop\n      pop\n      dup2\n      jump\t// out\n        /* \"contracts/Token.sol\":669:944  function transfer(address to, uint value) public returns(bool) {... */\n    tag_56:\n        /* \"contracts/Token.sol\":726:730  bool */\n      0x00\n        /* \"contracts/Token.sol\":775:780  value */\n      dup2\n        /* \"contracts/Token.sol\":750:771  balanceOf(msg.sender) */\n      tag_99\n        /* \"contracts/Token.sol\":760:770  msg.sender */\n      caller\n        /* \"contracts/Token.sol\":750:759  balanceOf */\n      tag_49\n        /* \"contracts/Token.sol\":750:771  balanceOf(msg.sender) */\n      jump\t// in\n    tag_99:\n        /* \"contracts/Token.sol\":750:780  balanceOf(msg.sender) >= value */\n      lt\n      iszero\n        /* \"contracts/Token.sol\":742:800  require(balanceOf(msg.sender) >= value, 'balance too low') */\n      tag_100\n      jumpi\n      mload(0x40)\n      0x08c379a000000000000000000000000000000000000000000000000000000000\n      dup2\n      mstore\n      0x04\n      add\n      tag_101\n      swap1\n      tag_75\n      jump\t// in\n    tag_101:\n      mload(0x40)\n      dup1\n      swap2\n      sub\n      swap1\n      revert\n    tag_100:\n        /* \"contracts/Token.sol\":826:831  value */\n      dup2\n        /* \"contracts/Token.sol\":810:818  balances */\n      0x00\n        /* \"contracts/Token.sol\":810:822  balances[to] */\n      dup1\n        /* \"contracts/Token.sol\":819:821  to */\n      dup6\n        /* \"contracts/Token.sol\":810:822  balances[to] */\n      0xffffffffffffffffffffffffffffffffffffffff\n      and\n      0xffffffffffffffffffffffffffffffffffffffff\n      and\n      dup2\n      mstore\n      0x20\n      add\n      swap1\n      dup2\n      mstore\n      0x20\n      add\n      0x00\n      keccak256\n      0x00\n        /* \"contracts/Token.sol\":810:831  balances[to] += value */\n      dup3\n      dup3\n      sload\n      tag_102\n      swap2\n      swap1\n      tag_80\n      jump\t// in\n    tag_102:\n      swap3\n      pop\n      pop\n      dup2\n      swap1\n      sstore\n      pop\n        /* \"contracts/Token.sol\":865:870  value */\n      dup2\n        /* \"contracts/Token.sol\":841:849  balances */\n      0x00\n        /* \"contracts/Token.sol\":841:861  balances[msg.sender] */\n      dup1\n        /* \"contracts/Token.sol\":850:860  msg.sender */\n      caller\n        /* \"contracts/Token.sol\":841:861  balances[msg.sender] */\n      0xffffffffffffffffffffffffffffffffffffffff\n      and\n      0xffffffffffffffffffffffffffffffffffffffff\n      and\n      dup2\n      mstore\n      0x20\n      add\n      swap1\n      dup2\n      mstore\n      0x20\n      add\n      0x00\n      keccak256\n      0x00\n        /* \"contracts/Token.sol\":841:870  balances[msg.sender] -= value */\n      dup3\n      dup3\n      sload\n      tag_103\n      swap2\n      swap1\n      tag_82\n      jump\t// in\n    tag_103:\n      swap3\n      pop\n      pop\n      dup2\n      swap1\n      sstore\n      pop\n        /* \"contracts/Token.sol\":906:908  to */\n      dup3\n        /* \"contracts/Token.sol\":885:916  Transfer(msg.sender, to, value) */\n      0xffffffffffffffffffffffffffffffffffffffff\n      and\n        /* \"contracts/Token.sol\":894:904  msg.sender */\n      caller\n        /* \"contracts/Token.sol\":885:916  Transfer(msg.sender, to, value) */\n      0xffffffffffffffffffffffffffffffffffffffff\n      and\n      0xddf252ad1be2c89b69c2b068fc378daa952ba7f163c4a11628f55a4df523b3ef\n        /* \"contracts/Token.sol\":910:915  value */\n      dup5\n        /* \"contracts/Token.sol\":885:916  Transfer(msg.sender, to, value) */\n      mload(0x40)\n      tag_104\n      swap2\n      swap1\n      tag_28\n      jump\t// in\n    tag_104:\n      mload(0x40)\n      dup1\n      swap2\n      sub\n      swap1\n      log3\n        /* \"contracts/Token.sol\":933:937  true */\n      0x01\n        /* \"contracts/Token.sol\":926:937  return true */\n      swap1\n      pop\n        /* \"contracts/Token.sol\":669:944  function transfer(address to, uint value) public returns(bool) {... */\n      swap3\n      swap2\n      pop\n      pop\n      jump\t// out\n        /* \"contracts/Token.sol\":97:158  mapping(address => mapping(address => uint)) public allowance */\n    tag_61:\n      mstore(0x20, 0x01)\n      dup2\n      0x00\n      mstore\n      mstore(0x20, keccak256(0x00, 0x40))\n      dup1\n      0x00\n      mstore\n      keccak256(0x00, 0x40)\n      0x00\n      swap2\n      pop\n      swap2\n      pop\n      pop\n      sload\n      dup2\n      jump\t// out\n        /* \"#utility.yul\":7:146   */\n    tag_106:\n      0x00\n        /* \"#utility.yul\":91:97   */\n      dup2\n        /* \"#utility.yul\":78:98   */\n      calldataload\n        /* \"#utility.yul\":69:98   */\n      swap1\n      pop\n        /* \"#utility.yul\":107:140   */\n      tag_108\n        /* \"#utility.yul\":134:139   */\n      dup2\n        /* \"#utility.yul\":107:140   */\n      tag_109\n      jump\t// in\n    tag_108:\n        /* \"#utility.yul\":59:146   */\n      swap3\n      swap2\n      pop\n      pop\n      jump\t// out\n        /* \"#utility.yul\":152:291   */\n    tag_110:\n      0x00\n        /* \"#utility.yul\":236:242   */\n      dup2\n        /* \"#utility.yul\":223:243   */\n      calldataload\n        /* \"#utility.yul\":214:243   */\n      swap1\n      pop\n        /* \"#utility.yul\":252:285   */\n      tag_112\n        /* \"#utility.yul\":279:284   */\n      dup2\n        /* \"#utility.yul\":252:285   */\n      tag_113\n      jump\t// in\n    tag_112:\n        /* \"#utility.yul\":204:291   */\n      swap3\n      swap2\n      pop\n      pop\n      jump\t// out\n        /* \"#utility.yul\":297:559   */\n    tag_36:\n      0x00\n        /* \"#utility.yul\":405:407   */\n      0x20\n        /* \"#utility.yul\":393:402   */\n      dup3\n        /* \"#utility.yul\":384:391   */\n      dup5\n        /* \"#utility.yul\":380:403   */\n      sub\n        /* \"#utility.yul\":376:408   */\n      slt\n        /* \"#utility.yul\":373:375   */\n      iszero\n      tag_115\n      jumpi\n        /* \"#utility.yul\":421:422   */\n      0x00\n        /* \"#utility.yul\":418:419   */\n      dup1\n        /* \"#utility.yul\":411:423   */\n      revert\n        /* \"#utility.yul\":373:375   */\n    tag_115:\n        /* \"#utility.yul\":464:465   */\n      0x00\n        /* \"#utility.yul\":489:542   */\n      tag_116\n        /* \"#utility.yul\":534:541   */\n      dup5\n        /* \"#utility.yul\":525:531   */\n      dup3\n        /* \"#utility.yul\":514:523   */\n      dup6\n        /* \"#utility.yul\":510:532   */\n      add\n        /* \"#utility.yul\":489:542   */\n      tag_106\n      jump\t// in\n    tag_116:\n        /* \"#utility.yul\":479:542   */\n      swap2\n      pop\n        /* \"#utility.yul\":435:552   */\n      pop\n        /* \"#utility.yul\":363:559   */\n      swap3\n      swap2\n      pop\n      pop\n      jump\t// out\n        /* \"#utility.yul\":565:972   */\n    tag_60:\n      0x00\n      dup1\n        /* \"#utility.yul\":690:692   */\n      0x40\n        /* \"#utility.yul\":678:687   */\n      dup4\n        /* \"#utility.yul\":669:676   */\n      dup6\n        /* \"#utility.yul\":665:688   */\n      sub\n        /* \"#utility.yul\":661:693   */\n      slt\n        /* \"#utility.yul\":658:660   */\n      iszero\n      tag_118\n      jumpi\n        /* \"#utility.yul\":706:707   */\n      0x00\n        /* \"#utility.yul\":703:704   */\n      dup1\n        /* \"#utility.yul\":696:708   */\n      revert\n        /* \"#utility.yul\":658:660   */\n    tag_118:\n        /* \"#utility.yul\":749:750   */\n      0x00\n        /* \"#utility.yul\":774:827   */\n      tag_119\n        /* \"#utility.yul\":819:826   */\n      dup6\n        /* \"#utility.yul\":810:816   */\n      dup3\n        /* \"#utility.yul\":799:808   */\n      dup7\n        /* \"#utility.yul\":795:817   */\n      add\n        /* \"#utility.yul\":774:827   */\n      tag_106\n      jump\t// in\n    tag_119:\n        /* \"#utility.yul\":764:827   */\n      swap3\n      pop\n        /* \"#utility.yul\":720:837   */\n      pop\n        /* \"#utility.yul\":876:878   */\n      0x20\n        /* \"#utility.yul\":902:955   */\n      tag_120\n        /* \"#utility.yul\":947:954   */\n      dup6\n        /* \"#utility.yul\":938:944   */\n      dup3\n        /* \"#utility.yul\":927:936   */\n      dup7\n        /* \"#utility.yul\":923:945   */\n      add\n        /* \"#utility.yul\":902:955   */\n      tag_106\n      jump\t// in\n    tag_120:\n        /* \"#utility.yul\":892:955   */\n      swap2\n      pop\n        /* \"#utility.yul\":847:965   */\n      pop\n        /* \"#utility.yul\":648:972   */\n      swap3\n      pop\n      swap3\n      swap1\n      pop\n      jump\t// out\n        /* \"#utility.yul\":978:1530   */\n    tag_31:\n      0x00\n      dup1\n      0x00\n        /* \"#utility.yul\":1120:1122   */\n      0x60\n        /* \"#utility.yul\":1108:1117   */\n      dup5\n        /* \"#utility.yul\":1099:1106   */\n      dup7\n        /* \"#utility.yul\":1095:1118   */\n      sub\n        /* \"#utility.yul\":1091:1123   */\n      slt\n        /* \"#utility.yul\":1088:1090   */\n      iszero\n      tag_122\n      jumpi\n        /* \"#utility.yul\":1136:1137   */\n      0x00\n        /* \"#utility.yul\":1133:1134   */\n      dup1\n        /* \"#utility.yul\":1126:1138   */\n      revert\n        /* \"#utility.yul\":1088:1090   */\n    tag_122:\n        /* \"#utility.yul\":1179:1180   */\n      0x00\n        /* \"#utility.yul\":1204:1257   */\n      tag_123\n        /* \"#utility.yul\":1249:1256   */\n      dup7\n        /* \"#utility.yul\":1240:1246   */\n      dup3\n        /* \"#utility.yul\":1229:1238   */\n      dup8\n        /* \"#utility.yul\":1225:1247   */\n      add\n        /* \"#utility.yul\":1204:1257   */\n      tag_106\n      jump\t// in\n    tag_123:\n        /* \"#utility.yul\":1194:1257   */\n      swap4\n      pop\n        /* \"#utility.yul\":1150:1267   */\n      pop\n        /* \"#utility.yul\":1306:1308   */\n      0x20\n        /* \"#utility.yul\":1332:1385   */\n      tag_124\n        /* \"#utility.yul\":1377:1384   */\n      dup7\n        /* \"#utility.yul\":1368:1374   */\n      dup3\n        /* \"#utility.yul\":1357:1366   */\n      dup8\n        /* \"#utility.yul\":1353:1375   */\n      add\n        /* \"#utility.yul\":1332:1385   */\n      tag_106\n      jump\t// in\n    tag_124:\n        /* \"#utility.yul\":1322:1385   */\n      swap3\n      pop\n        /* \"#utility.yul\":1277:1395   */\n      pop\n        /* \"#utility.yul\":1434:1436   */\n      0x40\n        /* \"#utility.yul\":1460:1513   */\n      tag_125\n        /* \"#utility.yul\":1505:1512   */\n      dup7\n        /* \"#utility.yul\":1496:1502   */\n      dup3\n        /* \"#utility.yul\":1485:1494   */\n      dup8\n        /* \"#utility.yul\":1481:1503   */\n      add\n        /* \"#utility.yul\":1460:1513   */\n      tag_110\n      jump\t// in\n    tag_125:\n        /* \"#utility.yul\":1450:1513   */\n      swap2\n      pop\n        /* \"#utility.yul\":1405:1523   */\n      pop\n        /* \"#utility.yul\":1078:1530   */\n      swap3\n      pop\n      swap3\n      pop\n      swap3\n      jump\t// out\n        /* \"#utility.yul\":1536:1943   */\n    tag_21:\n      0x00\n      dup1\n        /* \"#utility.yul\":1661:1663   */\n      0x40\n        /* \"#utility.yul\":1649:1658   */\n      dup4\n        /* \"#utility.yul\":1640:1647   */\n      dup6\n        /* \"#utility.yul\":1636:1659   */\n      sub\n        /* \"#utility.yul\":1632:1664   */\n      slt\n        /* \"#utility.yul\":1629:1631   */\n      iszero\n      tag_127\n      jumpi\n        /* \"#utility.yul\":1677:1678   */\n      0x00\n        /* \"#utility.yul\":1674:1675   */\n      dup1\n        /* \"#utility.yul\":1667:1679   */\n      revert\n        /* \"#utility.yul\":1629:1631   */\n    tag_127:\n        /* \"#utility.yul\":1720:1721   */\n      0x00\n        /* \"#utility.yul\":1745:1798   */\n      tag_128\n        /* \"#utility.yul\":1790:1797   */\n      dup6\n        /* \"#utility.yul\":1781:1787   */\n      dup3\n        /* \"#utility.yul\":1770:1779   */\n      dup7\n        /* \"#utility.yul\":1766:1788   */\n      add\n        /* \"#utility.yul\":1745:1798   */\n      tag_106\n      jump\t// in\n    tag_128:\n        /* \"#utility.yul\":1735:1798   */\n      swap3\n      pop\n        /* \"#utility.yul\":1691:1808   */\n      pop\n        /* \"#utility.yul\":1847:1849   */\n      0x20\n        /* \"#utility.yul\":1873:1926   */\n      tag_129\n        /* \"#utility.yul\":1918:1925   */\n      dup6\n        /* \"#utility.yul\":1909:1915   */\n      dup3\n        /* \"#utility.yul\":1898:1907   */\n      dup7\n        /* \"#utility.yul\":1894:1916   */\n      add\n        /* \"#utility.yul\":1873:1926   */\n      tag_110\n      jump\t// in\n    tag_129:\n        /* \"#utility.yul\":1863:1926   */\n      swap2\n      pop\n        /* \"#utility.yul\":1818:1936   */\n      pop\n        /* \"#utility.yul\":1619:1943   */\n      swap3\n      pop\n      swap3\n      swap1\n      pop\n      jump\t// out\n        /* \"#utility.yul\":1949:2211   */\n    tag_44:\n      0x00\n        /* \"#utility.yul\":2057:2059   */\n      0x20\n        /* \"#utility.yul\":2045:2054   */\n      dup3\n        /* \"#utility.yul\":2036:2043   */\n      dup5\n        /* \"#utility.yul\":2032:2055   */\n      sub\n        /* \"#utility.yul\":2028:2060   */\n      slt\n        /* \"#utility.yul\":2025:2027   */\n      iszero\n      tag_131\n      jumpi\n        /* \"#utility.yul\":2073:2074   */\n      0x00\n        /* \"#utility.yul\":2070:2071   */\n      dup1\n        /* \"#utility.yul\":2063:2075   */\n      revert\n        /* \"#utility.yul\":2025:2027   */\n    tag_131:\n        /* \"#utility.yul\":2116:2117   */\n      0x00\n        /* \"#utility.yul\":2141:2194   */\n      tag_132\n        /* \"#utility.yul\":2186:2193   */\n      dup5\n        /* \"#utility.yul\":2177:2183   */\n      dup3\n        /* \"#utility.yul\":2166:2175   */\n      dup6\n        /* \"#utility.yul\":2162:2184   */\n      add\n        /* \"#utility.yul\":2141:2194   */\n      tag_110\n      jump\t// in\n    tag_132:\n        /* \"#utility.yul\":2131:2194   */\n      swap2\n      pop\n        /* \"#utility.yul\":2087:2204   */\n      pop\n        /* \"#utility.yul\":2015:2211   */\n      swap3\n      swap2\n      pop\n      pop\n      jump\t// out\n        /* \"#utility.yul\":2217:2326   */\n    tag_133:\n        /* \"#utility.yul\":2298:2319   */\n      tag_135\n        /* \"#utility.yul\":2313:2318   */\n      dup2\n        /* \"#utility.yul\":2298:2319   */\n      tag_136\n      jump\t// in\n    tag_135:\n        /* \"#utility.yul\":2293:2296   */\n      dup3\n        /* \"#utility.yul\":2286:2320   */\n      mstore\n        /* \"#utility.yul\":2276:2326   */\n      pop\n      pop\n      jump\t// out\n        /* \"#utility.yul\":2332:2696   */\n    tag_137:\n      0x00\n        /* \"#utility.yul\":2448:2487   */\n      tag_139\n        /* \"#utility.yul\":2481:2486   */\n      dup3\n        /* \"#utility.yul\":2448:2487   */\n      tag_140\n      jump\t// in\n    tag_139:\n        /* \"#utility.yul\":2503:2574   */\n      tag_141\n        /* \"#utility.yul\":2567:2573   */\n      dup2\n        /* \"#utility.yul\":2562:2565   */\n      dup6\n        /* \"#utility.yul\":2503:2574   */\n      tag_142\n      jump\t// in\n    tag_141:\n        /* \"#utility.yul\":2496:2574   */\n      swap4\n      pop\n        /* \"#utility.yul\":2583:2635   */\n      tag_143\n        /* \"#utility.yul\":2628:2634   */\n      dup2\n        /* \"#utility.yul\":2623:2626   */\n      dup6\n        /* \"#utility.yul\":2616:2620   */\n      0x20\n        /* \"#utility.yul\":2609:2614   */\n      dup7\n        /* \"#utility.yul\":2605:2621   */\n      add\n        /* \"#utility.yul\":2583:2635   */\n      tag_144\n      jump\t// in\n    tag_143:\n        /* \"#utility.yul\":2660:2689   */\n      tag_145\n        /* \"#utility.yul\":2682:2688   */\n      dup2\n        /* \"#utility.yul\":2660:2689   */\n      tag_146\n      jump\t// in\n    tag_145:\n        /* \"#utility.yul\":2655:2658   */\n      dup5\n        /* \"#utility.yul\":2651:2690   */\n      add\n        /* \"#utility.yul\":2644:2690   */\n      swap2\n      pop\n        /* \"#utility.yul\":2424:2696   */\n      pop\n      swap3\n      swap2\n      pop\n      pop\n      jump\t// out\n        /* \"#utility.yul\":2702:3068   */\n    tag_147:\n      0x00\n        /* \"#utility.yul\":2865:2932   */\n      tag_149\n        /* \"#utility.yul\":2929:2931   */\n      0x0f\n        /* \"#utility.yul\":2924:2927   */\n      dup4\n        /* \"#utility.yul\":2865:2932   */\n      tag_142\n      jump\t// in\n    tag_149:\n        /* \"#utility.yul\":2858:2932   */\n      swap2\n      pop\n        /* \"#utility.yul\":2941:3034   */\n      tag_150\n        /* \"#utility.yul\":3030:3033   */\n      dup3\n        /* \"#utility.yul\":2941:3034   */\n      tag_151\n      jump\t// in\n    tag_150:\n        /* \"#utility.yul\":3059:3061   */\n      0x20\n        /* \"#utility.yul\":3054:3057   */\n      dup3\n        /* \"#utility.yul\":3050:3062   */\n      add\n        /* \"#utility.yul\":3043:3062   */\n      swap1\n      pop\n        /* \"#utility.yul\":2848:3068   */\n      swap2\n      swap1\n      pop\n      jump\t// out\n        /* \"#utility.yul\":3074:3440   */\n    tag_152:\n      0x00\n        /* \"#utility.yul\":3237:3304   */\n      tag_154\n        /* \"#utility.yul\":3301:3303   */\n      0x14\n        /* \"#utility.yul\":3296:3299   */\n      dup4\n        /* \"#utility.yul\":3237:3304   */\n      tag_142\n      jump\t// in\n    tag_154:\n        /* \"#utility.yul\":3230:3304   */\n      swap2\n      pop\n        /* \"#utility.yul\":3313:3406   */\n      tag_155\n        /* \"#utility.yul\":3402:3405   */\n      dup3\n        /* \"#utility.yul\":3313:3406   */\n      tag_156\n      jump\t// in\n    tag_155:\n        /* \"#utility.yul\":3431:3433   */\n      0x20\n        /* \"#utility.yul\":3426:3429   */\n      dup3\n        /* \"#utility.yul\":3422:3434   */\n      add\n        /* \"#utility.yul\":3415:3434   */\n      swap1\n      pop\n        /* \"#utility.yul\":3220:3440   */\n      swap2\n      swap1\n      pop\n      jump\t// out\n        /* \"#utility.yul\":3446:3812   */\n    tag_157:\n      0x00\n        /* \"#utility.yul\":3609:3676   */\n      tag_159\n        /* \"#utility.yul\":3673:3675   */\n      0x11\n        /* \"#utility.yul\":3668:3671   */\n      dup4\n        /* \"#utility.yul\":3609:3676   */\n      tag_142\n      jump\t// in\n    tag_159:\n        /* \"#utility.yul\":3602:3676   */\n      swap2\n      pop\n        /* \"#utility.yul\":3685:3778   */\n      tag_160\n        /* \"#utility.yul\":3774:3777   */\n      dup3\n        /* \"#utility.yul\":3685:3778   */\n      tag_161\n      jump\t// in\n    tag_160:\n        /* \"#utility.yul\":3803:3805   */\n      0x20\n        /* \"#utility.yul\":3798:3801   */\n      dup3\n        /* \"#utility.yul\":3794:3806   */\n      add\n        /* \"#utility.yul\":3787:3806   */\n      swap1\n      pop\n        /* \"#utility.yul\":3592:3812   */\n      swap2\n      swap1\n      pop\n      jump\t// out\n        /* \"#utility.yul\":3818:3936   */\n    tag_162:\n        /* \"#utility.yul\":3905:3929   */\n      tag_164\n        /* \"#utility.yul\":3923:3928   */\n      dup2\n        /* \"#utility.yul\":3905:3929   */\n      tag_165\n      jump\t// in\n    tag_164:\n        /* \"#utility.yul\":3900:3903   */\n      dup3\n        /* \"#utility.yul\":3893:3930   */\n      mstore\n        /* \"#utility.yul\":3883:3936   */\n      pop\n      pop\n      jump\t// out\n        /* \"#utility.yul\":3942:4152   */\n    tag_24:\n      0x00\n        /* \"#utility.yul\":4067:4069   */\n      0x20\n        /* \"#utility.yul\":4056:4065   */\n      dup3\n        /* \"#utility.yul\":4052:4070   */\n      add\n        /* \"#utility.yul\":4044:4070   */\n      swap1\n      pop\n        /* \"#utility.yul\":4080:4145   */\n      tag_167\n        /* \"#utility.yul\":4142:4143   */\n      0x00\n        /* \"#utility.yul\":4131:4140   */\n      dup4\n        /* \"#utility.yul\":4127:4144   */\n      add\n        /* \"#utility.yul\":4118:4124   */\n      dup5\n        /* \"#utility.yul\":4080:4145   */\n      tag_133\n      jump\t// in\n    tag_167:\n        /* \"#utility.yul\":4034:4152   */\n      swap3\n      swap2\n      pop\n      pop\n      jump\t// out\n        /* \"#utility.yul\":4158:4471   */\n    tag_18:\n      0x00\n        /* \"#utility.yul\":4309:4311   */\n      0x20\n        /* \"#utility.yul\":4298:4307   */\n      dup3\n        /* \"#utility.yul\":4294:4312   */\n      add\n        /* \"#utility.yul\":4286:4312   */\n      swap1\n      pop\n        /* \"#utility.yul\":4358:4367   */\n      dup2\n        /* \"#utility.yul\":4352:4356   */\n      dup2\n        /* \"#utility.yul\":4348:4368   */\n      sub\n        /* \"#utility.yul\":4344:4345   */\n      0x00\n        /* \"#utility.yul\":4333:4342   */\n      dup4\n        /* \"#utility.yul\":4329:4346   */\n      add\n        /* \"#utility.yul\":4322:4369   */\n      mstore\n        /* \"#utility.yul\":4386:4464   */\n      tag_169\n        /* \"#utility.yul\":4459:4463   */\n      dup2\n        /* \"#utility.yul\":4450:4456   */\n      dup5\n        /* \"#utility.yul\":4386:4464   */\n      tag_137\n      jump\t// in\n    tag_169:\n        /* \"#utility.yul\":4378:4464   */\n      swap1\n      pop\n        /* \"#utility.yul\":4276:4471   */\n      swap3\n      swap2\n      pop\n      pop\n      jump\t// out\n        /* \"#utility.yul\":4477:4896   */\n    tag_75:\n      0x00\n        /* \"#utility.yul\":4681:4683   */\n      0x20\n        /* \"#utility.yul\":4670:4679   */\n      dup3\n        /* \"#utility.yul\":4666:4684   */\n      add\n        /* \"#utility.yul\":4658:4684   */\n      swap1\n      pop\n        /* \"#utility.yul\":4730:4739   */\n      dup2\n        /* \"#utility.yul\":4724:4728   */\n      dup2\n        /* \"#utility.yul\":4720:4740   */\n      sub\n        /* \"#utility.yul\":4716:4717   */\n      0x00\n        /* \"#utility.yul\":4705:4714   */\n      dup4\n        /* \"#utility.yul\":4701:4718   */\n      add\n        /* \"#utility.yul\":4694:4741   */\n      mstore\n        /* \"#utility.yul\":4758:4889   */\n      tag_171\n        /* \"#utility.yul\":4884:4888   */\n      dup2\n        /* \"#utility.yul\":4758:4889   */\n      tag_147\n      jump\t// in\n    tag_171:\n        /* \"#utility.yul\":4750:4889   */\n      swap1\n      pop\n        /* \"#utility.yul\":4648:4896   */\n      swap2\n      swap1\n      pop\n      jump\t// out\n        /* \"#utility.yul\":4902:5321   */\n    tag_88:\n      0x00\n        /* \"#utility.yul\":5106:5108   */\n      0x20\n        /* \"#utility.yul\":5095:5104   */\n      dup3\n        /* \"#utility.yul\":5091:5109   */\n      add\n        /* \"#utility.yul\":5083:5109   */\n      swap1\n      pop\n        /* \"#utility.yul\":5155:5164   */\n      dup2\n        /* \"#utility.yul\":5149:5153   */\n      dup2\n        /* \"#utility.yul\":5145:5165   */\n      sub\n        /* \"#utility.yul\":5141:5142   */\n      0x00\n        /* \"#utility.yul\":5130:5139   */\n      dup4\n        /* \"#utility.yul\":5126:5143   */\n      add\n        /* \"#utility.yul\":5119:5166   */\n      mstore\n        /* \"#utility.yul\":5183:5314   */\n      tag_173\n        /* \"#utility.yul\":5309:5313   */\n      dup2\n        /* \"#utility.yul\":5183:5314   */\n      tag_152\n      jump\t// in\n    tag_173:\n        /* \"#utility.yul\":5175:5314   */\n      swap1\n      pop\n        /* \"#utility.yul\":5073:5321   */\n      swap2\n      swap1\n      pop\n      jump\t// out\n        /* \"#utility.yul\":5327:5746   */\n    tag_78:\n      0x00\n        /* \"#utility.yul\":5531:5533   */\n      0x20\n        /* \"#utility.yul\":5520:5529   */\n      dup3\n        /* \"#utility.yul\":5516:5534   */\n      add\n        /* \"#utility.yul\":5508:5534   */\n      swap1\n      pop\n        /* \"#utility.yul\":5580:5589   */\n      dup2\n        /* \"#utility.yul\":5574:5578   */\n      dup2\n        /* \"#utility.yul\":5570:5590   */\n      sub\n        /* \"#utility.yul\":5566:5567   */\n      0x00\n        /* \"#utility.yul\":5555:5564   */\n      dup4\n        /* \"#utility.yul\":5551:5568   */\n      add\n        /* \"#utility.yul\":5544:5591   */\n      mstore\n        /* \"#utility.yul\":5608:5739   */\n      tag_175\n        /* \"#utility.yul\":5734:5738   */\n      dup2\n        /* \"#utility.yul\":5608:5739   */\n      tag_157\n      jump\t// in\n    tag_175:\n        /* \"#utility.yul\":5600:5739   */\n      swap1\n      pop\n        /* \"#utility.yul\":5498:5746   */\n      swap2\n      swap1\n      pop\n      jump\t// out\n        /* \"#utility.yul\":5752:5974   */\n    tag_28:\n      0x00\n        /* \"#utility.yul\":5883:5885   */\n      0x20\n        /* \"#utility.yul\":5872:5881   */\n      dup3\n        /* \"#utility.yul\":5868:5886   */\n      add\n        /* \"#utility.yul\":5860:5886   */\n      swap1\n      pop\n        /* \"#utility.yul\":5896:5967   */\n      tag_177\n        /* \"#utility.yul\":5964:5965   */\n      0x00\n        /* \"#utility.yul\":5953:5962   */\n      dup4\n        /* \"#utility.yul\":5949:5966   */\n      add\n        /* \"#utility.yul\":5940:5946   */\n      dup5\n        /* \"#utility.yul\":5896:5967   */\n      tag_162\n      jump\t// in\n    tag_177:\n        /* \"#utility.yul\":5850:5974   */\n      swap3\n      swap2\n      pop\n      pop\n      jump\t// out\n        /* \"#utility.yul\":5980:6079   */\n    tag_140:\n      0x00\n        /* \"#utility.yul\":6066:6071   */\n      dup2\n        /* \"#utility.yul\":6060:6072   */\n      mload\n        /* \"#utility.yul\":6050:6072   */\n      swap1\n      pop\n        /* \"#utility.yul\":6039:6079   */\n      swap2\n      swap1\n      pop\n      jump\t// out\n        /* \"#utility.yul\":6085:6254   */\n    tag_142:\n      0x00\n        /* \"#utility.yul\":6203:6209   */\n      dup3\n        /* \"#utility.yul\":6198:6201   */\n      dup3\n        /* \"#utility.yul\":6191:6210   */\n      mstore\n        /* \"#utility.yul\":6243:6247   */\n      0x20\n        /* \"#utility.yul\":6238:6241   */\n      dup3\n        /* \"#utility.yul\":6234:6248   */\n      add\n        /* \"#utility.yul\":6219:6248   */\n      swap1\n      pop\n        /* \"#utility.yul\":6181:6254   */\n      swap3\n      swap2\n      pop\n      pop\n      jump\t// out\n        /* \"#utility.yul\":6260:6565   */\n    tag_80:\n      0x00\n        /* \"#utility.yul\":6319:6339   */\n      tag_181\n        /* \"#utility.yul\":6337:6338   */\n      dup3\n        /* \"#utility.yul\":6319:6339   */\n      tag_165\n      jump\t// in\n    tag_181:\n        /* \"#utility.yul\":6314:6339   */\n      swap2\n      pop\n        /* \"#utility.yul\":6353:6373   */\n      tag_182\n        /* \"#utility.yul\":6371:6372   */\n      dup4\n        /* \"#utility.yul\":6353:6373   */\n      tag_165\n      jump\t// in\n    tag_182:\n        /* \"#utility.yul\":6348:6373   */\n      swap3\n      pop\n        /* \"#utility.yul\":6507:6508   */\n      dup3\n        /* \"#utility.yul\":6439:6505   */\n      0xffffffffffffffffffffffffffffffffffffffffffffffffffffffffffffffff\n        /* \"#utility.yul\":6435:6509   */\n      sub\n        /* \"#utility.yul\":6432:6433   */\n      dup3\n        /* \"#utility.yul\":6429:6510   */\n      gt\n        /* \"#utility.yul\":6426:6428   */\n      iszero\n      tag_183\n      jumpi\n        /* \"#utility.yul\":6513:6531   */\n      tag_184\n      tag_185\n      jump\t// in\n    tag_184:\n        /* \"#utility.yul\":6426:6428   */\n    tag_183:\n        /* \"#utility.yul\":6557:6558   */\n      dup3\n        /* \"#utility.yul\":6554:6555   */\n      dup3\n        /* \"#utility.yul\":6550:6559   */\n      add\n        /* \"#utility.yul\":6543:6559   */\n      swap1\n      pop\n        /* \"#utility.yul\":6304:6565   */\n      swap3\n      swap2\n      pop\n      pop\n      jump\t// out\n        /* \"#utility.yul\":6571:6762   */\n    tag_82:\n      0x00\n        /* \"#utility.yul\":6631:6651   */\n      tag_187\n        /* \"#utility.yul\":6649:6650   */\n      dup3\n        /* \"#utility.yul\":6631:6651   */\n      tag_165\n      jump\t// in\n    tag_187:\n        /* \"#utility.yul\":6626:6651   */\n      swap2\n      pop\n        /* \"#utility.yul\":6665:6685   */\n      tag_188\n        /* \"#utility.yul\":6683:6684   */\n      dup4\n        /* \"#utility.yul\":6665:6685   */\n      tag_165\n      jump\t// in\n    tag_188:\n        /* \"#utility.yul\":6660:6685   */\n      swap3\n      pop\n        /* \"#utility.yul\":6704:6705   */\n      dup3\n        /* \"#utility.yul\":6701:6702   */\n      dup3\n        /* \"#utility.yul\":6698:6706   */\n      lt\n        /* \"#utility.yul\":6695:6697   */\n      iszero\n      tag_189\n      jumpi\n        /* \"#utility.yul\":6709:6727   */\n      tag_190\n      tag_185\n      jump\t// in\n    tag_190:\n        /* \"#utility.yul\":6695:6697   */\n    tag_189:\n        /* \"#utility.yul\":6754:6755   */\n      dup3\n        /* \"#utility.yul\":6751:6752   */\n      dup3\n        /* \"#utility.yul\":6747:6756   */\n      sub\n        /* \"#utility.yul\":6739:6756   */\n      swap1\n      pop\n        /* \"#utility.yul\":6616:6762   */\n      swap3\n      swap2\n      pop\n      pop\n      jump\t// out\n        /* \"#utility.yul\":6768:6864   */\n    tag_191:\n      0x00\n        /* \"#utility.yul\":6834:6858   */\n      tag_193\n        /* \"#utility.yul\":6852:6857   */\n      dup3\n        /* \"#utility.yul\":6834:6858   */\n      tag_194\n      jump\t// in\n    tag_193:\n        /* \"#utility.yul\":6823:6858   */\n      swap1\n      pop\n        /* \"#utility.yul\":6813:6864   */\n      swap2\n      swap1\n      pop\n      jump\t// out\n        /* \"#utility.yul\":6870:6960   */\n    tag_136:\n      0x00\n        /* \"#utility.yul\":6947:6952   */\n      dup2\n        /* \"#utility.yul\":6940:6953   */\n      iszero\n        /* \"#utility.yul\":6933:6954   */\n      iszero\n        /* \"#utility.yul\":6922:6954   */\n      swap1\n      pop\n        /* \"#utility.yul\":6912:6960   */\n      swap2\n      swap1\n      pop\n      jump\t// out\n        /* \"#utility.yul\":6966:7092   */\n    tag_194:\n      0x00\n        /* \"#utility.yul\":7043:7085   */\n      0xffffffffffffffffffffffffffffffffffffffff\n        /* \"#utility.yul\":7036:7041   */\n      dup3\n        /* \"#utility.yul\":7032:7086   */\n      and\n        /* \"#utility.yul\":7021:7086   */\n      swap1\n      pop\n        /* \"#utility.yul\":7011:7092   */\n      swap2\n      swap1\n      pop\n      jump\t// out\n        /* \"#utility.yul\":7098:7175   */\n    tag_165:\n      0x00\n        /* \"#utility.yul\":7164:7169   */\n      dup2\n        /* \"#utility.yul\":7153:7169   */\n      swap1\n      pop\n        /* \"#utility.yul\":7143:7175   */\n      swap2\n      swap1\n      pop\n      jump\t// out\n        /* \"#utility.yul\":7181:7488   */\n    tag_144:\n        /* \"#utility.yul\":7249:7250   */\n      0x00\n        /* \"#utility.yul\":7259:7372   */\n    tag_199:\n        /* \"#utility.yul\":7273:7279   */\n      dup4\n        /* \"#utility.yul\":7270:7271   */\n      dup2\n        /* \"#utility.yul\":7267:7280   */\n      lt\n        /* \"#utility.yul\":7259:7372   */\n      iszero\n      tag_201\n      jumpi\n        /* \"#utility.yul\":7358:7359   */\n      dup1\n        /* \"#utility.yul\":7353:7356   */\n      dup3\n        /* \"#utility.yul\":7349:7360   */\n      add\n        /* \"#utility.yul\":7343:7361   */\n      mload\n        /* \"#utility.yul\":7339:7340   */\n      dup2\n        /* \"#utility.yul\":7334:7337   */\n      dup5\n        /* \"#utility.yul\":7330:7341   */\n      add\n        /* \"#utility.yul\":7323:7362   */\n      mstore\n        /* \"#utility.yul\":7295:7297   */\n      0x20\n        /* \"#utility.yul\":7292:7293   */\n      dup2\n        /* \"#utility.yul\":7288:7298   */\n      add\n        /* \"#utility.yul\":7283:7298   */\n      swap1\n      pop\n        /* \"#utility.yul\":7259:7372   */\n      jump(tag_199)\n    tag_201:\n        /* \"#utility.yul\":7390:7396   */\n      dup4\n        /* \"#utility.yul\":7387:7388   */\n      dup2\n        /* \"#utility.yul\":7384:7397   */\n      gt\n        /* \"#utility.yul\":7381:7383   */\n      iszero\n      tag_202\n      jumpi\n        /* \"#utility.yul\":7470:7471   */\n      0x00\n        /* \"#utility.yul\":7461:7467   */\n      dup5\n        /* \"#utility.yul\":7456:7459   */\n      dup5\n        /* \"#utility.yul\":7452:7468   */\n      add\n        /* \"#utility.yul\":7445:7472   */\n      mstore\n        /* \"#utility.yul\":7381:7383   */\n    tag_202:\n        /* \"#utility.yul\":7230:7488   */\n      pop\n      pop\n      pop\n      pop\n      jump\t// out\n        /* \"#utility.yul\":7494:7814   */\n    tag_64:\n      0x00\n        /* \"#utility.yul\":7575:7576   */\n      0x02\n        /* \"#utility.yul\":7569:7573   */\n      dup3\n        /* \"#utility.yul\":7565:7577   */\n      div\n        /* \"#utility.yul\":7555:7577   */\n      swap1\n      pop\n        /* \"#utility.yul\":7622:7623   */\n      0x01\n        /* \"#utility.yul\":7616:7620   */\n      dup3\n        /* \"#utility.yul\":7612:7624   */\n      and\n        /* \"#utility.yul\":7643:7661   */\n      dup1\n        /* \"#utility.yul\":7633:7635   */\n      tag_204\n      jumpi\n        /* \"#utility.yul\":7699:7703   */\n      0x7f\n        /* \"#utility.yul\":7691:7697   */\n      dup3\n        /* \"#utility.yul\":7687:7704   */\n      and\n        /* \"#utility.yul\":7677:7704   */\n      swap2\n      pop\n        /* \"#utility.yul\":7633:7635   */\n    tag_204:\n        /* \"#utility.yul\":7761:7763   */\n      0x20\n        /* \"#utility.yul\":7753:7759   */\n      dup3\n        /* \"#utility.yul\":7750:7764   */\n      lt\n        /* \"#utility.yul\":7730:7748   */\n      dup2\n        /* \"#utility.yul\":7727:7765   */\n      eq\n        /* \"#utility.yul\":7724:7726   */\n      iszero\n      tag_205\n      jumpi\n        /* \"#utility.yul\":7780:7798   */\n      tag_206\n      tag_207\n      jump\t// in\n    tag_206:\n        /* \"#utility.yul\":7724:7726   */\n    tag_205:\n        /* \"#utility.yul\":7545:7814   */\n      pop\n      swap2\n      swap1\n      pop\n      jump\t// out\n        /* \"#utility.yul\":7820:8000   */\n    tag_185:\n        /* \"#utility.yul\":7868:7945   */\n      0x4e487b7100000000000000000000000000000000000000000000000000000000\n        /* \"#utility.yul\":7865:7866   */\n      0x00\n        /* \"#utility.yul\":7858:7946   */\n      mstore\n        /* \"#utility.yul\":7965:7969   */\n      0x11\n        /* \"#utility.yul\":7962:7963   */\n      0x04\n        /* \"#utility.yul\":7955:7970   */\n      mstore\n        /* \"#utility.yul\":7989:7993   */\n      0x24\n        /* \"#utility.yul\":7986:7987   */\n      0x00\n        /* \"#utility.yul\":7979:7994   */\n      revert\n        /* \"#utility.yul\":8006:8186   */\n    tag_207:\n        /* \"#utility.yul\":8054:8131   */\n      0x4e487b7100000000000000000000000000000000000000000000000000000000\n        /* \"#utility.yul\":8051:8052   */\n      0x00\n        /* \"#utility.yul\":8044:8132   */\n      mstore\n        /* \"#utility.yul\":8151:8155   */\n      0x22\n        /* \"#utility.yul\":8148:8149   */\n      0x04\n        /* \"#utility.yul\":8141:8156   */\n      mstore\n        /* \"#utility.yul\":8175:8179   */\n      0x24\n        /* \"#utility.yul\":8172:8173   */\n      0x00\n        /* \"#utility.yul\":8165:8180   */\n      revert\n        /* \"#utility.yul\":8192:8294   */\n    tag_146:\n      0x00\n        /* \"#utility.yul\":8284:8286   */\n      0x1f\n        /* \"#utility.yul\":8280:8287   */\n      not\n        /* \"#utility.yul\":8275:8277   */\n      0x1f\n        /* \"#utility.yul\":8268:8273   */\n      dup4\n        /* \"#utility.yul\":8264:8278   */\n      add\n        /* \"#utility.yul\":8260:8288   */\n      and\n        /* \"#utility.yul\":8250:8288   */\n      swap1\n      pop\n        /* \"#utility.yul\":8240:8294   */\n      swap2\n      swap1\n      pop\n      jump\t// out\n        /* \"#utility.yul\":8300:8465   */\n    tag_151:\n        /* \"#utility.yul\":8440:8457   */\n      0x62616c616e636520746f6f206c6f770000000000000000000000000000000000\n        /* \"#utility.yul\":8436:8437   */\n      0x00\n        /* \"#utility.yul\":8428:8434   */\n      dup3\n        /* \"#utility.yul\":8424:8438   */\n      add\n        /* \"#utility.yul\":8417:8458   */\n      mstore\n        /* \"#utility.yul\":8406:8465   */\n      pop\n      jump\t// out\n        /* \"#utility.yul\":8471:8641   */\n    tag_156:\n        /* \"#utility.yul\":8611:8633   */\n      0x496e73756666696369656e742062616c616e6365000000000000000000000000\n        /* \"#utility.yul\":8607:8608   */\n      0x00\n        /* \"#utility.yul\":8599:8605   */\n      dup3\n        /* \"#utility.yul\":8595:8609   */\n      add\n        /* \"#utility.yul\":8588:8634   */\n      mstore\n        /* \"#utility.yul\":8577:8641   */\n      pop\n      jump\t// out\n        /* \"#utility.yul\":8647:8814   */\n    tag_161:\n        /* \"#utility.yul\":8787:8806   */\n      0x616c6c6f77616e636520746f6f206c6f77000000000000000000000000000000\n        /* \"#utility.yul\":8783:8784   */\n      0x00\n        /* \"#utility.yul\":8775:8781   */\n      dup3\n        /* \"#utility.yul\":8771:8785   */\n      add\n        /* \"#utility.yul\":8764:8807   */\n      mstore\n        /* \"#utility.yul\":8753:8814   */\n      pop\n      jump\t// out\n        /* \"#utility.yul\":8820:8942   */\n    tag_109:\n        /* \"#utility.yul\":8893:8917   */\n      tag_215\n        /* \"#utility.yul\":8911:8916   */\n      dup2\n        /* \"#utility.yul\":8893:8917   */\n      tag_191\n      jump\t// in\n    tag_215:\n        /* \"#utility.yul\":8886:8891   */\n      dup2\n        /* \"#utility.yul\":8883:8918   */\n      eq\n        /* \"#utility.yul\":8873:8875   */\n      tag_216\n      jumpi\n        /* \"#utility.yul\":8932:8933   */\n      0x00\n        /* \"#utility.yul\":8929:8930   */\n      dup1\n        /* \"#utility.yul\":8922:8934   */\n      revert\n        /* \"#utility.yul\":8873:8875   */\n    tag_216:\n        /* \"#utility.yul\":8863:8942   */\n      pop\n      jump\t// out\n        /* \"#utility.yul\":8948:9070   */\n    tag_113:\n        /* \"#utility.yul\":9021:9045   */\n      tag_218\n        /* \"#utility.yul\":9039:9044   */\n      dup2\n        /* \"#utility.yul\":9021:9045   */\n      tag_165\n      jump\t// in\n    tag_218:\n        /* \"#utility.yul\":9014:9019   */\n      dup2\n        /* \"#utility.yul\":9011:9046   */\n      eq\n        /* \"#utility.yul\":9001:9003   */\n      tag_219\n      jumpi\n        /* \"#utility.yul\":9060:9061   */\n      0x00\n        /* \"#utility.yul\":9057:9058   */\n      dup1\n        /* \"#utility.yul\":9050:9062   */\n      revert\n        /* \"#utility.yul\":9001:9003   */\n    tag_219:\n        /* \"#utility.yul\":8991:9070   */\n      pop\n      jump\t// out\n\n    auxdata: 0xa26469706673582212201bfcc998ebf8cf9c8adf9e6e973bfbd8a7c1622b90e75e1079cca1408927cf7864736f6c63430008020033\n}\n",
				"bytecode": {
					"linkReferences": {},
					"object": "608060405264e8d4a510006002556040518060400160405280600a81526020017f4275646479546f6b656e00000000000000000000000000000000000000000000815250600390805190602001906200005a92919062000106565b506040518060400160405280600581526020017f425544445900000000000000000000000000000000000000000000000000000081525060049080519060200190620000a892919062000106565b5060058055348015620000ba57600080fd5b506002546000803373ffffffffffffffffffffffffffffffffffffffff1673ffffffffffffffffffffffffffffffffffffffff168152602001908152602001600020819055506200021b565b8280546200011490620001b6565b90600052602060002090601f01602090048101928262000138576000855562000184565b82601f106200015357805160ff191683800117855562000184565b8280016001018555821562000184579182015b828111156200018357825182559160200191906001019062000166565b5b50905062000193919062000197565b5090565b5b80821115620001b257600081600090555060010162000198565b5090565b60006002820490506001821680620001cf57607f821691505b60208210811415620001e657620001e5620001ec565b5b50919050565b7f4e487b7100000000000000000000000000000000000000000000000000000000600052602260045260246000fd5b610f27806200022b6000396000f3fe608060405234801561001057600080fd5b50600436106100a95760003560e01c8063313ce56711610071578063313ce5671461017a57806342966c681461019857806370a08231146101c857806395d89b41146101f8578063a9059cbb14610216578063dd62ed3e14610246576100a9565b806306fdde03146100ae578063095ea7b3146100cc57806318160ddd146100fc57806323b872dd1461011a57806327e235e31461014a575b600080fd5b6100b6610276565b6040516100c39190610be9565b60405180910390f35b6100e660048036038101906100e19190610aa9565b610304565b6040516100f39190610bce565b60405180910390f35b6101046103f6565b6040516101119190610c6b565b60405180910390f35b610134600480360381019061012f9190610a5a565b6103fc565b6040516101419190610bce565b60405180910390f35b610164600480360381019061015f91906109f5565b610622565b6040516101719190610c6b565b60405180910390f35b61018261063a565b60405161018f9190610c6b565b60405180910390f35b6101b260048036038101906101ad9190610ae5565b610640565b6040516101bf9190610bce565b60405180910390f35b6101e260048036038101906101dd91906109f5565b61076a565b6040516101ef9190610c6b565b60405180910390f35b6102006107b2565b60405161020d9190610be9565b60405180910390f35b610230600480360381019061022b9190610aa9565b610840565b60405161023d9190610bce565b60405180910390f35b610260600480360381019061025b9190610a1e565b6109a6565b60405161026d9190610c6b565b60405180910390f35b6003805461028390610da7565b80601f01602080910402602001604051908101604052809291908181526020018280546102af90610da7565b80156102fc5780601f106102d1576101008083540402835291602001916102fc565b820191906000526020600020905b8154815290600101906020018083116102df57829003601f168201915b505050505081565b600081600160003373ffffffffffffffffffffffffffffffffffffffff1673ffffffffffffffffffffffffffffffffffffffff16815260200190815260200160002060008573ffffffffffffffffffffffffffffffffffffffff1673ffffffffffffffffffffffffffffffffffffffff168152602001908152602001600020819055508273ffffffffffffffffffffffffffffffffffffffff163373ffffffffffffffffffffffffffffffffffffffff167f8c5be1e5ebec7d5bd14f71427d1e84f3dd0314c0f7b2291e5b200ac8c7c3b925846040516103e49190610c6b565b60405180910390a36001905092915050565b60025481565b6000816104088561076a565b1015610449576040517f08c379a000000000000000000000000000000000000000000000000000000000815260040161044090610c0b565b60405180910390fd5b81600160008673ffffffffffffffffffffffffffffffffffffffff1673ffffffffffffffffffffffffffffffffffffffff16815260200190815260200160002060003373ffffffffffffffffffffffffffffffffffffffff1673ffffffffffffffffffffffffffffffffffffffff168152602001908152602001600020541015610508576040517f08c379a00000000000000000000000000000000000000000000000000000000081526004016104ff90610c4b565b60405180910390fd5b816000808573ffffffffffffffffffffffffffffffffffffffff1673ffffffffffffffffffffffffffffffffffffffff16815260200190815260200160002060008282546105569190610ca2565b92505081905550816000808673ffffffffffffffffffffffffffffffffffffffff1673ffffffffffffffffffffffffffffffffffffffff16815260200190815260200160002060008282546105ab9190610cf8565b925050819055508273ffffffffffffffffffffffffffffffffffffffff168473ffffffffffffffffffffffffffffffffffffffff167fddf252ad1be2c89b69c2b068fc378daa952ba7f163c4a11628f55a4df523b3ef8460405161060f9190610c6b565b60405180910390a3600190509392505050565b60006020528060005260406000206000915090505481565b60055481565b60008161064c3361076a565b101561068d576040517f08c379a000000000000000000000000000000000000000000000000000000000815260040161068490610c2b565b60405180910390fd5b816000803373ffffffffffffffffffffffffffffffffffffffff1673ffffffffffffffffffffffffffffffffffffffff16815260200190815260200160002060008282546106db9190610cf8565b9250508190555081600260008282546106f49190610cf8565b92505081905550600073ffffffffffffffffffffffffffffffffffffffff163373ffffffffffffffffffffffffffffffffffffffff167fddf252ad1be2c89b69c2b068fc378daa952ba7f163c4a11628f55a4df523b3ef846040516107599190610c6b565b60405180910390a360019050919050565b60008060008373ffffffffffffffffffffffffffffffffffffffff1673ffffffffffffffffffffffffffffffffffffffff168152602001908152602001600020549050919050565b600480546107bf90610da7565b80601f01602080910402602001604051908101604052809291908181526020018280546107eb90610da7565b80156108385780601f1061080d57610100808354040283529160200191610838565b820191906000526020600020905b81548152906001019060200180831161081b57829003601f168201915b505050505081565b60008161084c3361076a565b101561088d576040517f08c379a000000000000000000000000000000000000000000000000000000000815260040161088490610c0b565b60405180910390fd5b816000808573ffffffffffffffffffffffffffffffffffffffff1673ffffffffffffffffffffffffffffffffffffffff16815260200190815260200160002060008282546108db9190610ca2565b92505081905550816000803373ffffffffffffffffffffffffffffffffffffffff1673ffffffffffffffffffffffffffffffffffffffff16815260200190815260200160002060008282546109309190610cf8565b925050819055508273ffffffffffffffffffffffffffffffffffffffff163373ffffffffffffffffffffffffffffffffffffffff167fddf252ad1be2c89b69c2b068fc378daa952ba7f163c4a11628f55a4df523b3ef846040516109949190610c6b565b60405180910390a36001905092915050565b6001602052816000526040600020602052806000526040600020600091509150505481565b6000813590506109da81610ec3565b92915050565b6000813590506109ef81610eda565b92915050565b600060208284031215610a0757600080fd5b6000610a15848285016109cb565b91505092915050565b60008060408385031215610a3157600080fd5b6000610a3f858286016109cb565b9250506020610a50858286016109cb565b9150509250929050565b600080600060608486031215610a6f57600080fd5b6000610a7d868287016109cb565b9350506020610a8e868287016109cb565b9250506040610a9f868287016109e0565b9150509250925092565b60008060408385031215610abc57600080fd5b6000610aca858286016109cb565b9250506020610adb858286016109e0565b9150509250929050565b600060208284031215610af757600080fd5b6000610b05848285016109e0565b91505092915050565b610b1781610d3e565b82525050565b6000610b2882610c86565b610b328185610c91565b9350610b42818560208601610d74565b610b4b81610e37565b840191505092915050565b6000610b63600f83610c91565b9150610b6e82610e48565b602082019050919050565b6000610b86601483610c91565b9150610b9182610e71565b602082019050919050565b6000610ba9601183610c91565b9150610bb482610e9a565b602082019050919050565b610bc881610d6a565b82525050565b6000602082019050610be36000830184610b0e565b92915050565b60006020820190508181036000830152610c038184610b1d565b905092915050565b60006020820190508181036000830152610c2481610b56565b9050919050565b60006020820190508181036000830152610c4481610b79565b9050919050565b60006020820190508181036000830152610c6481610b9c565b9050919050565b6000602082019050610c806000830184610bbf565b92915050565b600081519050919050565b600082825260208201905092915050565b6000610cad82610d6a565b9150610cb883610d6a565b9250827fffffffffffffffffffffffffffffffffffffffffffffffffffffffffffffffff03821115610ced57610cec610dd9565b5b828201905092915050565b6000610d0382610d6a565b9150610d0e83610d6a565b925082821015610d2157610d20610dd9565b5b828203905092915050565b6000610d3782610d4a565b9050919050565b60008115159050919050565b600073ffffffffffffffffffffffffffffffffffffffff82169050919050565b6000819050919050565b60005b83811015610d92578082015181840152602081019050610d77565b83811115610da1576000848401525b50505050565b60006002820490506001821680610dbf57607f821691505b60208210811415610dd357610dd2610e08565b5b50919050565b7f4e487b7100000000000000000000000000000000000000000000000000000000600052601160045260246000fd5b7f4e487b7100000000000000000000000000000000000000000000000000000000600052602260045260246000fd5b6000601f19601f8301169050919050565b7f62616c616e636520746f6f206c6f770000000000000000000000000000000000600082015250565b7f496e73756666696369656e742062616c616e6365000000000000000000000000600082015250565b7f616c6c6f77616e636520746f6f206c6f77000000000000000000000000000000600082015250565b610ecc81610d2c565b8114610ed757600080fd5b50565b610ee381610d6a565b8114610eee57600080fd5b5056fea26469706673582212201bfcc998ebf8cf9c8adf9e6e973bfbd8a7c1622b90e75e1079cca1408927cf7864736f6c63430008020033",
					"opcodes": "PUSH1 0x80 PUSH1 0x40 MSTORE PUSH5 0xE8D4A51000 PUSH1 0x2 SSTORE PUSH1 0x40 MLOAD DUP1 PUSH1 0x40 ADD PUSH1 0x40 MSTORE DUP1 PUSH1 0xA DUP2 MSTORE PUSH1 0x20 ADD PUSH32 0x4275646479546F6B656E00000000000000000000000000000000000000000000 DUP2 MSTORE POP PUSH1 0x3 SWAP1 DUP1 MLOAD SWAP1 PUSH1 0x20 ADD SWAP1 PUSH3 0x5A SWAP3 SWAP2 SWAP1 PUSH3 0x106 JUMP JUMPDEST POP PUSH1 0x40 MLOAD DUP1 PUSH1 0x40 ADD PUSH1 0x40 MSTORE DUP1 PUSH1 0x5 DUP2 MSTORE PUSH1 0x20 ADD PUSH32 0x4255444459000000000000000000000000000000000000000000000000000000 DUP2 MSTORE POP PUSH1 0x4 SWAP1 DUP1 MLOAD SWAP1 PUSH1 0x20 ADD SWAP1 PUSH3 0xA8 SWAP3 SWAP2 SWAP1 PUSH3 0x106 JUMP JUMPDEST POP PUSH1 0x5 DUP1 SSTORE CALLVALUE DUP1 ISZERO PUSH3 0xBA JUMPI PUSH1 0x0 DUP1 REVERT JUMPDEST POP PUSH1 0x2 SLOAD PUSH1 0x0 DUP1 CALLER PUSH20 0xFFFFFFFFFFFFFFFFFFFFFFFFFFFFFFFFFFFFFFFF AND PUSH20 0xFFFFFFFFFFFFFFFFFFFFFFFFFFFFFFFFFFFFFFFF AND DUP2 MSTORE PUSH1 0x20 ADD SWAP1 DUP2 MSTORE PUSH1 0x20 ADD PUSH1 0x0 KECCAK256 DUP2 SWAP1 SSTORE POP PUSH3 0x21B JUMP JUMPDEST DUP3 DUP1 SLOAD PUSH3 0x114 SWAP1 PUSH3 0x1B6 JUMP JUMPDEST SWAP1 PUSH1 0x0 MSTORE PUSH1 0x20 PUSH1 0x0 KECCAK256 SWAP1 PUSH1 0x1F ADD PUSH1 0x20 SWAP1 DIV DUP2 ADD SWAP3 DUP3 PUSH3 0x138 JUMPI PUSH1 0x0 DUP6 SSTORE PUSH3 0x184 JUMP JUMPDEST DUP3 PUSH1 0x1F LT PUSH3 0x153 JUMPI DUP1 MLOAD PUSH1 0xFF NOT AND DUP4 DUP1 ADD OR DUP6 SSTORE PUSH3 0x184 JUMP JUMPDEST DUP3 DUP1 ADD PUSH1 0x1 ADD DUP6 SSTORE DUP3 ISZERO PUSH3 0x184 JUMPI SWAP2 DUP3 ADD JUMPDEST DUP3 DUP2 GT ISZERO PUSH3 0x183 JUMPI DUP3 MLOAD DUP3 SSTORE SWAP2 PUSH1 0x20 ADD SWAP2 SWAP1 PUSH1 0x1 ADD SWAP1 PUSH3 0x166 JUMP JUMPDEST JUMPDEST POP SWAP1 POP PUSH3 0x193 SWAP2 SWAP1 PUSH3 0x197 JUMP JUMPDEST POP SWAP1 JUMP JUMPDEST JUMPDEST DUP1 DUP3 GT ISZERO PUSH3 0x1B2 JUMPI PUSH1 0x0 DUP2 PUSH1 0x0 SWAP1 SSTORE POP PUSH1 0x1 ADD PUSH3 0x198 JUMP JUMPDEST POP SWAP1 JUMP JUMPDEST PUSH1 0x0 PUSH1 0x2 DUP3 DIV SWAP1 POP PUSH1 0x1 DUP3 AND DUP1 PUSH3 0x1CF JUMPI PUSH1 0x7F DUP3 AND SWAP2 POP JUMPDEST PUSH1 0x20 DUP3 LT DUP2 EQ ISZERO PUSH3 0x1E6 JUMPI PUSH3 0x1E5 PUSH3 0x1EC JUMP JUMPDEST JUMPDEST POP SWAP2 SWAP1 POP JUMP JUMPDEST PUSH32 0x4E487B7100000000000000000000000000000000000000000000000000000000 PUSH1 0x0 MSTORE PUSH1 0x22 PUSH1 0x4 MSTORE PUSH1 0x24 PUSH1 0x0 REVERT JUMPDEST PUSH2 0xF27 DUP1 PUSH3 0x22B PUSH1 0x0 CODECOPY PUSH1 0x0 RETURN INVALID PUSH1 0x80 PUSH1 0x40 MSTORE CALLVALUE DUP1 ISZERO PUSH2 0x10 JUMPI PUSH1 0x0 DUP1 REVERT JUMPDEST POP PUSH1 0x4 CALLDATASIZE LT PUSH2 0xA9 JUMPI PUSH1 0x0 CALLDATALOAD PUSH1 0xE0 SHR DUP1 PUSH4 0x313CE567 GT PUSH2 0x71 JUMPI DUP1 PUSH4 0x313CE567 EQ PUSH2 0x17A JUMPI DUP1 PUSH4 0x42966C68 EQ PUSH2 0x198 JUMPI DUP1 PUSH4 0x70A08231 EQ PUSH2 0x1C8 JUMPI DUP1 PUSH4 0x95D89B41 EQ PUSH2 0x1F8 JUMPI DUP1 PUSH4 0xA9059CBB EQ PUSH2 0x216 JUMPI DUP1 PUSH4 0xDD62ED3E EQ PUSH2 0x246 JUMPI PUSH2 0xA9 JUMP JUMPDEST DUP1 PUSH4 0x6FDDE03 EQ PUSH2 0xAE JUMPI DUP1 PUSH4 0x95EA7B3 EQ PUSH2 0xCC JUMPI DUP1 PUSH4 0x18160DDD EQ PUSH2 0xFC JUMPI DUP1 PUSH4 0x23B872DD EQ PUSH2 0x11A JUMPI DUP1 PUSH4 0x27E235E3 EQ PUSH2 0x14A JUMPI JUMPDEST PUSH1 0x0 DUP1 REVERT JUMPDEST PUSH2 0xB6 PUSH2 0x276 JUMP JUMPDEST PUSH1 0x40 MLOAD PUSH2 0xC3 SWAP2 SWAP1 PUSH2 0xBE9 JUMP JUMPDEST PUSH1 0x40 MLOAD DUP1 SWAP2 SUB SWAP1 RETURN JUMPDEST PUSH2 0xE6 PUSH1 0x4 DUP1 CALLDATASIZE SUB DUP2 ADD SWAP1 PUSH2 0xE1 SWAP2 SWAP1 PUSH2 0xAA9 JUMP JUMPDEST PUSH2 0x304 JUMP JUMPDEST PUSH1 0x40 MLOAD PUSH2 0xF3 SWAP2 SWAP1 PUSH2 0xBCE JUMP JUMPDEST PUSH1 0x40 MLOAD DUP1 SWAP2 SUB SWAP1 RETURN JUMPDEST PUSH2 0x104 PUSH2 0x3F6 JUMP JUMPDEST PUSH1 0x40 MLOAD PUSH2 0x111 SWAP2 SWAP1 PUSH2 0xC6B JUMP JUMPDEST PUSH1 0x40 MLOAD DUP1 SWAP2 SUB SWAP1 RETURN JUMPDEST PUSH2 0x134 PUSH1 0x4 DUP1 CALLDATASIZE SUB DUP2 ADD SWAP1 PUSH2 0x12F SWAP2 SWAP1 PUSH2 0xA5A JUMP JUMPDEST PUSH2 0x3FC JUMP JUMPDEST PUSH1 0x40 MLOAD PUSH2 0x141 SWAP2 SWAP1 PUSH2 0xBCE JUMP JUMPDEST PUSH1 0x40 MLOAD DUP1 SWAP2 SUB SWAP1 RETURN JUMPDEST PUSH2 0x164 PUSH1 0x4 DUP1 CALLDATASIZE SUB DUP2 ADD SWAP1 PUSH2 0x15F SWAP2 SWAP1 PUSH2 0x9F5 JUMP JUMPDEST PUSH2 0x622 JUMP JUMPDEST PUSH1 0x40 MLOAD PUSH2 0x171 SWAP2 SWAP1 PUSH2 0xC6B JUMP JUMPDEST PUSH1 0x40 MLOAD DUP1 SWAP2 SUB SWAP1 RETURN JUMPDEST PUSH2 0x182 PUSH2 0x63A JUMP JUMPDEST PUSH1 0x40 MLOAD PUSH2 0x18F SWAP2 SWAP1 PUSH2 0xC6B JUMP JUMPDEST PUSH1 0x40 MLOAD DUP1 SWAP2 SUB SWAP1 RETURN JUMPDEST PUSH2 0x1B2 PUSH1 0x4 DUP1 CALLDATASIZE SUB DUP2 ADD SWAP1 PUSH2 0x1AD SWAP2 SWAP1 PUSH2 0xAE5 JUMP JUMPDEST PUSH2 0x640 JUMP JUMPDEST PUSH1 0x40 MLOAD PUSH2 0x1BF SWAP2 SWAP1 PUSH2 0xBCE JUMP JUMPDEST PUSH1 0x40 MLOAD DUP1 SWAP2 SUB SWAP1 RETURN JUMPDEST PUSH2 0x1E2 PUSH1 0x4 DUP1 CALLDATASIZE SUB DUP2 ADD SWAP1 PUSH2 0x1DD SWAP2 SWAP1 PUSH2 0x9F5 JUMP JUMPDEST PUSH2 0x76A JUMP JUMPDEST PUSH1 0x40 MLOAD PUSH2 0x1EF SWAP2 SWAP1 PUSH2 0xC6B JUMP JUMPDEST PUSH1 0x40 MLOAD DUP1 SWAP2 SUB SWAP1 RETURN JUMPDEST PUSH2 0x200 PUSH2 0x7B2 JUMP JUMPDEST PUSH1 0x40 MLOAD PUSH2 0x20D SWAP2 SWAP1 PUSH2 0xBE9 JUMP JUMPDEST PUSH1 0x40 MLOAD DUP1 SWAP2 SUB SWAP1 RETURN JUMPDEST PUSH2 0x230 PUSH1 0x4 DUP1 CALLDATASIZE SUB DUP2 ADD SWAP1 PUSH2 0x22B SWAP2 SWAP1 PUSH2 0xAA9 JUMP JUMPDEST PUSH2 0x840 JUMP JUMPDEST PUSH1 0x40 MLOAD PUSH2 0x23D SWAP2 SWAP1 PUSH2 0xBCE JUMP JUMPDEST PUSH1 0x40 MLOAD DUP1 SWAP2 SUB SWAP1 RETURN JUMPDEST PUSH2 0x260 PUSH1 0x4 DUP1 CALLDATASIZE SUB DUP2 ADD SWAP1 PUSH2 0x25B SWAP2 SWAP1 PUSH2 0xA1E JUMP JUMPDEST PUSH2 0x9A6 JUMP JUMPDEST PUSH1 0x40 MLOAD PUSH2 0x26D SWAP2 SWAP1 PUSH2 0xC6B JUMP JUMPDEST PUSH1 0x40 MLOAD DUP1 SWAP2 SUB SWAP1 RETURN JUMPDEST PUSH1 0x3 DUP1 SLOAD PUSH2 0x283 SWAP1 PUSH2 0xDA7 JUMP JUMPDEST DUP1 PUSH1 0x1F ADD PUSH1 0x20 DUP1 SWAP2 DIV MUL PUSH1 0x20 ADD PUSH1 0x40 MLOAD SWAP1 DUP2 ADD PUSH1 0x40 MSTORE DUP1 SWAP3 SWAP2 SWAP1 DUP2 DUP2 MSTORE PUSH1 0x20 ADD DUP3 DUP1 SLOAD PUSH2 0x2AF SWAP1 PUSH2 0xDA7 JUMP JUMPDEST DUP1 ISZERO PUSH2 0x2FC JUMPI DUP1 PUSH1 0x1F LT PUSH2 0x2D1 JUMPI PUSH2 0x100 DUP1 DUP4 SLOAD DIV MUL DUP4 MSTORE SWAP2 PUSH1 0x20 ADD SWAP2 PUSH2 0x2FC JUMP JUMPDEST DUP3 ADD SWAP2 SWAP1 PUSH1 0x0 MSTORE PUSH1 0x20 PUSH1 0x0 KECCAK256 SWAP1 JUMPDEST DUP2 SLOAD DUP2 MSTORE SWAP1 PUSH1 0x1 ADD SWAP1 PUSH1 0x20 ADD DUP1 DUP4 GT PUSH2 0x2DF JUMPI DUP3 SWAP1 SUB PUSH1 0x1F AND DUP3 ADD SWAP2 JUMPDEST POP POP POP POP POP DUP2 JUMP JUMPDEST PUSH1 0x0 DUP2 PUSH1 0x1 PUSH1 0x0 CALLER PUSH20 0xFFFFFFFFFFFFFFFFFFFFFFFFFFFFFFFFFFFFFFFF AND PUSH20 0xFFFFFFFFFFFFFFFFFFFFFFFFFFFFFFFFFFFFFFFF AND DUP2 MSTORE PUSH1 0x20 ADD SWAP1 DUP2 MSTORE PUSH1 0x20 ADD PUSH1 0x0 KECCAK256 PUSH1 0x0 DUP6 PUSH20 0xFFFFFFFFFFFFFFFFFFFFFFFFFFFFFFFFFFFFFFFF AND PUSH20 0xFFFFFFFFFFFFFFFFFFFFFFFFFFFFFFFFFFFFFFFF AND DUP2 MSTORE PUSH1 0x20 ADD SWAP1 DUP2 MSTORE PUSH1 0x20 ADD PUSH1 0x0 KECCAK256 DUP2 SWAP1 SSTORE POP DUP3 PUSH20 0xFFFFFFFFFFFFFFFFFFFFFFFFFFFFFFFFFFFFFFFF AND CALLER PUSH20 0xFFFFFFFFFFFFFFFFFFFFFFFFFFFFFFFFFFFFFFFF AND PUSH32 0x8C5BE1E5EBEC7D5BD14F71427D1E84F3DD0314C0F7B2291E5B200AC8C7C3B925 DUP5 PUSH1 0x40 MLOAD PUSH2 0x3E4 SWAP2 SWAP1 PUSH2 0xC6B JUMP JUMPDEST PUSH1 0x40 MLOAD DUP1 SWAP2 SUB SWAP1 LOG3 PUSH1 0x1 SWAP1 POP SWAP3 SWAP2 POP POP JUMP JUMPDEST PUSH1 0x2 SLOAD DUP2 JUMP JUMPDEST PUSH1 0x0 DUP2 PUSH2 0x408 DUP6 PUSH2 0x76A JUMP JUMPDEST LT ISZERO PUSH2 0x449 JUMPI PUSH1 0x40 MLOAD PUSH32 0x8C379A000000000000000000000000000000000000000000000000000000000 DUP2 MSTORE PUSH1 0x4 ADD PUSH2 0x440 SWAP1 PUSH2 0xC0B JUMP JUMPDEST PUSH1 0x40 MLOAD DUP1 SWAP2 SUB SWAP1 REVERT JUMPDEST DUP2 PUSH1 0x1 PUSH1 0x0 DUP7 PUSH20 0xFFFFFFFFFFFFFFFFFFFFFFFFFFFFFFFFFFFFFFFF AND PUSH20 0xFFFFFFFFFFFFFFFFFFFFFFFFFFFFFFFFFFFFFFFF AND DUP2 MSTORE PUSH1 0x20 ADD SWAP1 DUP2 MSTORE PUSH1 0x20 ADD PUSH1 0x0 KECCAK256 PUSH1 0x0 CALLER PUSH20 0xFFFFFFFFFFFFFFFFFFFFFFFFFFFFFFFFFFFFFFFF AND PUSH20 0xFFFFFFFFFFFFFFFFFFFFFFFFFFFFFFFFFFFFFFFF AND DUP2 MSTORE PUSH1 0x20 ADD SWAP1 DUP2 MSTORE PUSH1 0x20 ADD PUSH1 0x0 KECCAK256 SLOAD LT ISZERO PUSH2 0x508 JUMPI PUSH1 0x40 MLOAD PUSH32 0x8C379A000000000000000000000000000000000000000000000000000000000 DUP2 MSTORE PUSH1 0x4 ADD PUSH2 0x4FF SWAP1 PUSH2 0xC4B JUMP JUMPDEST PUSH1 0x40 MLOAD DUP1 SWAP2 SUB SWAP1 REVERT JUMPDEST DUP2 PUSH1 0x0 DUP1 DUP6 PUSH20 0xFFFFFFFFFFFFFFFFFFFFFFFFFFFFFFFFFFFFFFFF AND PUSH20 0xFFFFFFFFFFFFFFFFFFFFFFFFFFFFFFFFFFFFFFFF AND DUP2 MSTORE PUSH1 0x20 ADD SWAP1 DUP2 MSTORE PUSH1 0x20 ADD PUSH1 0x0 KECCAK256 PUSH1 0x0 DUP3 DUP3 SLOAD PUSH2 0x556 SWAP2 SWAP1 PUSH2 0xCA2 JUMP JUMPDEST SWAP3 POP POP DUP2 SWAP1 SSTORE POP DUP2 PUSH1 0x0 DUP1 DUP7 PUSH20 0xFFFFFFFFFFFFFFFFFFFFFFFFFFFFFFFFFFFFFFFF AND PUSH20 0xFFFFFFFFFFFFFFFFFFFFFFFFFFFFFFFFFFFFFFFF AND DUP2 MSTORE PUSH1 0x20 ADD SWAP1 DUP2 MSTORE PUSH1 0x20 ADD PUSH1 0x0 KECCAK256 PUSH1 0x0 DUP3 DUP3 SLOAD PUSH2 0x5AB SWAP2 SWAP1 PUSH2 0xCF8 JUMP JUMPDEST SWAP3 POP POP DUP2 SWAP1 SSTORE POP DUP3 PUSH20 0xFFFFFFFFFFFFFFFFFFFFFFFFFFFFFFFFFFFFFFFF AND DUP5 PUSH20 0xFFFFFFFFFFFFFFFFFFFFFFFFFFFFFFFFFFFFFFFF AND PUSH32 0xDDF252AD1BE2C89B69C2B068FC378DAA952BA7F163C4A11628F55A4DF523B3EF DUP5 PUSH1 0x40 MLOAD PUSH2 0x60F SWAP2 SWAP1 PUSH2 0xC6B JUMP JUMPDEST PUSH1 0x40 MLOAD DUP1 SWAP2 SUB SWAP1 LOG3 PUSH1 0x1 SWAP1 POP SWAP4 SWAP3 POP POP POP JUMP JUMPDEST PUSH1 0x0 PUSH1 0x20 MSTORE DUP1 PUSH1 0x0 MSTORE PUSH1 0x40 PUSH1 0x0 KECCAK256 PUSH1 0x0 SWAP2 POP SWAP1 POP SLOAD DUP2 JUMP JUMPDEST PUSH1 0x5 SLOAD DUP2 JUMP JUMPDEST PUSH1 0x0 DUP2 PUSH2 0x64C CALLER PUSH2 0x76A JUMP JUMPDEST LT ISZERO PUSH2 0x68D JUMPI PUSH1 0x40 MLOAD PUSH32 0x8C379A000000000000000000000000000000000000000000000000000000000 DUP2 MSTORE PUSH1 0x4 ADD PUSH2 0x684 SWAP1 PUSH2 0xC2B JUMP JUMPDEST PUSH1 0x40 MLOAD DUP1 SWAP2 SUB SWAP1 REVERT JUMPDEST DUP2 PUSH1 0x0 DUP1 CALLER PUSH20 0xFFFFFFFFFFFFFFFFFFFFFFFFFFFFFFFFFFFFFFFF AND PUSH20 0xFFFFFFFFFFFFFFFFFFFFFFFFFFFFFFFFFFFFFFFF AND DUP2 MSTORE PUSH1 0x20 ADD SWAP1 DUP2 MSTORE PUSH1 0x20 ADD PUSH1 0x0 KECCAK256 PUSH1 0x0 DUP3 DUP3 SLOAD PUSH2 0x6DB SWAP2 SWAP1 PUSH2 0xCF8 JUMP JUMPDEST SWAP3 POP POP DUP2 SWAP1 SSTORE POP DUP2 PUSH1 0x2 PUSH1 0x0 DUP3 DUP3 SLOAD PUSH2 0x6F4 SWAP2 SWAP1 PUSH2 0xCF8 JUMP JUMPDEST SWAP3 POP POP DUP2 SWAP1 SSTORE POP PUSH1 0x0 PUSH20 0xFFFFFFFFFFFFFFFFFFFFFFFFFFFFFFFFFFFFFFFF AND CALLER PUSH20 0xFFFFFFFFFFFFFFFFFFFFFFFFFFFFFFFFFFFFFFFF AND PUSH32 0xDDF252AD1BE2C89B69C2B068FC378DAA952BA7F163C4A11628F55A4DF523B3EF DUP5 PUSH1 0x40 MLOAD PUSH2 0x759 SWAP2 SWAP1 PUSH2 0xC6B JUMP JUMPDEST PUSH1 0x40 MLOAD DUP1 SWAP2 SUB SWAP1 LOG3 PUSH1 0x1 SWAP1 POP SWAP2 SWAP1 POP JUMP JUMPDEST PUSH1 0x0 DUP1 PUSH1 0x0 DUP4 PUSH20 0xFFFFFFFFFFFFFFFFFFFFFFFFFFFFFFFFFFFFFFFF AND PUSH20 0xFFFFFFFFFFFFFFFFFFFFFFFFFFFFFFFFFFFFFFFF AND DUP2 MSTORE PUSH1 0x20 ADD SWAP1 DUP2 MSTORE PUSH1 0x20 ADD PUSH1 0x0 KECCAK256 SLOAD SWAP1 POP SWAP2 SWAP1 POP JUMP JUMPDEST PUSH1 0x4 DUP1 SLOAD PUSH2 0x7BF SWAP1 PUSH2 0xDA7 JUMP JUMPDEST DUP1 PUSH1 0x1F ADD PUSH1 0x20 DUP1 SWAP2 DIV MUL PUSH1 0x20 ADD PUSH1 0x40 MLOAD SWAP1 DUP2 ADD PUSH1 0x40 MSTORE DUP1 SWAP3 SWAP2 SWAP1 DUP2 DUP2 MSTORE PUSH1 0x20 ADD DUP3 DUP1 SLOAD PUSH2 0x7EB SWAP1 PUSH2 0xDA7 JUMP JUMPDEST DUP1 ISZERO PUSH2 0x838 JUMPI DUP1 PUSH1 0x1F LT PUSH2 0x80D JUMPI PUSH2 0x100 DUP1 DUP4 SLOAD DIV MUL DUP4 MSTORE SWAP2 PUSH1 0x20 ADD SWAP2 PUSH2 0x838 JUMP JUMPDEST DUP3 ADD SWAP2 SWAP1 PUSH1 0x0 MSTORE PUSH1 0x20 PUSH1 0x0 KECCAK256 SWAP1 JUMPDEST DUP2 SLOAD DUP2 MSTORE SWAP1 PUSH1 0x1 ADD SWAP1 PUSH1 0x20 ADD DUP1 DUP4 GT PUSH2 0x81B JUMPI DUP3 SWAP1 SUB PUSH1 0x1F AND DUP3 ADD SWAP2 JUMPDEST POP POP POP POP POP DUP2 JUMP JUMPDEST PUSH1 0x0 DUP2 PUSH2 0x84C CALLER PUSH2 0x76A JUMP JUMPDEST LT ISZERO PUSH2 0x88D JUMPI PUSH1 0x40 MLOAD PUSH32 0x8C379A000000000000000000000000000000000000000000000000000000000 DUP2 MSTORE PUSH1 0x4 ADD PUSH2 0x884 SWAP1 PUSH2 0xC0B JUMP JUMPDEST PUSH1 0x40 MLOAD DUP1 SWAP2 SUB SWAP1 REVERT JUMPDEST DUP2 PUSH1 0x0 DUP1 DUP6 PUSH20 0xFFFFFFFFFFFFFFFFFFFFFFFFFFFFFFFFFFFFFFFF AND PUSH20 0xFFFFFFFFFFFFFFFFFFFFFFFFFFFFFFFFFFFFFFFF AND DUP2 MSTORE PUSH1 0x20 ADD SWAP1 DUP2 MSTORE PUSH1 0x20 ADD PUSH1 0x0 KECCAK256 PUSH1 0x0 DUP3 DUP3 SLOAD PUSH2 0x8DB SWAP2 SWAP1 PUSH2 0xCA2 JUMP JUMPDEST SWAP3 POP POP DUP2 SWAP1 SSTORE POP DUP2 PUSH1 0x0 DUP1 CALLER PUSH20 0xFFFFFFFFFFFFFFFFFFFFFFFFFFFFFFFFFFFFFFFF AND PUSH20 0xFFFFFFFFFFFFFFFFFFFFFFFFFFFFFFFFFFFFFFFF AND DUP2 MSTORE PUSH1 0x20 ADD SWAP1 DUP2 MSTORE PUSH1 0x20 ADD PUSH1 0x0 KECCAK256 PUSH1 0x0 DUP3 DUP3 SLOAD PUSH2 0x930 SWAP2 SWAP1 PUSH2 0xCF8 JUMP JUMPDEST SWAP3 POP POP DUP2 SWAP1 SSTORE POP DUP3 PUSH20 0xFFFFFFFFFFFFFFFFFFFFFFFFFFFFFFFFFFFFFFFF AND CALLER PUSH20 0xFFFFFFFFFFFFFFFFFFFFFFFFFFFFFFFFFFFFFFFF AND PUSH32 0xDDF252AD1BE2C89B69C2B068FC378DAA952BA7F163C4A11628F55A4DF523B3EF DUP5 PUSH1 0x40 MLOAD PUSH2 0x994 SWAP2 SWAP1 PUSH2 0xC6B JUMP JUMPDEST PUSH1 0x40 MLOAD DUP1 SWAP2 SUB SWAP1 LOG3 PUSH1 0x1 SWAP1 POP SWAP3 SWAP2 POP POP JUMP JUMPDEST PUSH1 0x1 PUSH1 0x20 MSTORE DUP2 PUSH1 0x0 MSTORE PUSH1 0x40 PUSH1 0x0 KECCAK256 PUSH1 0x20 MSTORE DUP1 PUSH1 0x0 MSTORE PUSH1 0x40 PUSH1 0x0 KECCAK256 PUSH1 0x0 SWAP2 POP SWAP2 POP POP SLOAD DUP2 JUMP JUMPDEST PUSH1 0x0 DUP2 CALLDATALOAD SWAP1 POP PUSH2 0x9DA DUP2 PUSH2 0xEC3 JUMP JUMPDEST SWAP3 SWAP2 POP POP JUMP JUMPDEST PUSH1 0x0 DUP2 CALLDATALOAD SWAP1 POP PUSH2 0x9EF DUP2 PUSH2 0xEDA JUMP JUMPDEST SWAP3 SWAP2 POP POP JUMP JUMPDEST PUSH1 0x0 PUSH1 0x20 DUP3 DUP5 SUB SLT ISZERO PUSH2 0xA07 JUMPI PUSH1 0x0 DUP1 REVERT JUMPDEST PUSH1 0x0 PUSH2 0xA15 DUP5 DUP3 DUP6 ADD PUSH2 0x9CB JUMP JUMPDEST SWAP2 POP POP SWAP3 SWAP2 POP POP JUMP JUMPDEST PUSH1 0x0 DUP1 PUSH1 0x40 DUP4 DUP6 SUB SLT ISZERO PUSH2 0xA31 JUMPI PUSH1 0x0 DUP1 REVERT JUMPDEST PUSH1 0x0 PUSH2 0xA3F DUP6 DUP3 DUP7 ADD PUSH2 0x9CB JUMP JUMPDEST SWAP3 POP POP PUSH1 0x20 PUSH2 0xA50 DUP6 DUP3 DUP7 ADD PUSH2 0x9CB JUMP JUMPDEST SWAP2 POP POP SWAP3 POP SWAP3 SWAP1 POP JUMP JUMPDEST PUSH1 0x0 DUP1 PUSH1 0x0 PUSH1 0x60 DUP5 DUP7 SUB SLT ISZERO PUSH2 0xA6F JUMPI PUSH1 0x0 DUP1 REVERT JUMPDEST PUSH1 0x0 PUSH2 0xA7D DUP7 DUP3 DUP8 ADD PUSH2 0x9CB JUMP JUMPDEST SWAP4 POP POP PUSH1 0x20 PUSH2 0xA8E DUP7 DUP3 DUP8 ADD PUSH2 0x9CB JUMP JUMPDEST SWAP3 POP POP PUSH1 0x40 PUSH2 0xA9F DUP7 DUP3 DUP8 ADD PUSH2 0x9E0 JUMP JUMPDEST SWAP2 POP POP SWAP3 POP SWAP3 POP SWAP3 JUMP JUMPDEST PUSH1 0x0 DUP1 PUSH1 0x40 DUP4 DUP6 SUB SLT ISZERO PUSH2 0xABC JUMPI PUSH1 0x0 DUP1 REVERT JUMPDEST PUSH1 0x0 PUSH2 0xACA DUP6 DUP3 DUP7 ADD PUSH2 0x9CB JUMP JUMPDEST SWAP3 POP POP PUSH1 0x20 PUSH2 0xADB DUP6 DUP3 DUP7 ADD PUSH2 0x9E0 JUMP JUMPDEST SWAP2 POP POP SWAP3 POP SWAP3 SWAP1 POP JUMP JUMPDEST PUSH1 0x0 PUSH1 0x20 DUP3 DUP5 SUB SLT ISZERO PUSH2 0xAF7 JUMPI PUSH1 0x0 DUP1 REVERT JUMPDEST PUSH1 0x0 PUSH2 0xB05 DUP5 DUP3 DUP6 ADD PUSH2 0x9E0 JUMP JUMPDEST SWAP2 POP POP SWAP3 SWAP2 POP POP JUMP JUMPDEST PUSH2 0xB17 DUP2 PUSH2 0xD3E JUMP JUMPDEST DUP3 MSTORE POP POP JUMP JUMPDEST PUSH1 0x0 PUSH2 0xB28 DUP3 PUSH2 0xC86 JUMP JUMPDEST PUSH2 0xB32 DUP2 DUP6 PUSH2 0xC91 JUMP JUMPDEST SWAP4 POP PUSH2 0xB42 DUP2 DUP6 PUSH1 0x20 DUP7 ADD PUSH2 0xD74 JUMP JUMPDEST PUSH2 0xB4B DUP2 PUSH2 0xE37 JUMP JUMPDEST DUP5 ADD SWAP2 POP POP SWAP3 SWAP2 POP POP JUMP JUMPDEST PUSH1 0x0 PUSH2 0xB63 PUSH1 0xF DUP4 PUSH2 0xC91 JUMP JUMPDEST SWAP2 POP PUSH2 0xB6E DUP3 PUSH2 0xE48 JUMP JUMPDEST PUSH1 0x20 DUP3 ADD SWAP1 POP SWAP2 SWAP1 POP JUMP JUMPDEST PUSH1 0x0 PUSH2 0xB86 PUSH1 0x14 DUP4 PUSH2 0xC91 JUMP JUMPDEST SWAP2 POP PUSH2 0xB91 DUP3 PUSH2 0xE71 JUMP JUMPDEST PUSH1 0x20 DUP3 ADD SWAP1 POP SWAP2 SWAP1 POP JUMP JUMPDEST PUSH1 0x0 PUSH2 0xBA9 PUSH1 0x11 DUP4 PUSH2 0xC91 JUMP JUMPDEST SWAP2 POP PUSH2 0xBB4 DUP3 PUSH2 0xE9A JUMP JUMPDEST PUSH1 0x20 DUP3 ADD SWAP1 POP SWAP2 SWAP1 POP JUMP JUMPDEST PUSH2 0xBC8 DUP2 PUSH2 0xD6A JUMP JUMPDEST DUP3 MSTORE POP POP JUMP JUMPDEST PUSH1 0x0 PUSH1 0x20 DUP3 ADD SWAP1 POP PUSH2 0xBE3 PUSH1 0x0 DUP4 ADD DUP5 PUSH2 0xB0E JUMP JUMPDEST SWAP3 SWAP2 POP POP JUMP JUMPDEST PUSH1 0x0 PUSH1 0x20 DUP3 ADD SWAP1 POP DUP2 DUP2 SUB PUSH1 0x0 DUP4 ADD MSTORE PUSH2 0xC03 DUP2 DUP5 PUSH2 0xB1D JUMP JUMPDEST SWAP1 POP SWAP3 SWAP2 POP POP JUMP JUMPDEST PUSH1 0x0 PUSH1 0x20 DUP3 ADD SWAP1 POP DUP2 DUP2 SUB PUSH1 0x0 DUP4 ADD MSTORE PUSH2 0xC24 DUP2 PUSH2 0xB56 JUMP JUMPDEST SWAP1 POP SWAP2 SWAP1 POP JUMP JUMPDEST PUSH1 0x0 PUSH1 0x20 DUP3 ADD SWAP1 POP DUP2 DUP2 SUB PUSH1 0x0 DUP4 ADD MSTORE PUSH2 0xC44 DUP2 PUSH2 0xB79 JUMP JUMPDEST SWAP1 POP SWAP2 SWAP1 POP JUMP JUMPDEST PUSH1 0x0 PUSH1 0x20 DUP3 ADD SWAP1 POP DUP2 DUP2 SUB PUSH1 0x0 DUP4 ADD MSTORE PUSH2 0xC64 DUP2 PUSH2 0xB9C JUMP JUMPDEST SWAP1 POP SWAP2 SWAP1 POP JUMP JUMPDEST PUSH1 0x0 PUSH1 0x20 DUP3 ADD SWAP1 POP PUSH2 0xC80 PUSH1 0x0 DUP4 ADD DUP5 PUSH2 0xBBF JUMP JUMPDEST SWAP3 SWAP2 POP POP JUMP JUMPDEST PUSH1 0x0 DUP2 MLOAD SWAP1 POP SWAP2 SWAP1 POP JUMP JUMPDEST PUSH1 0x0 DUP3 DUP3 MSTORE PUSH1 0x20 DUP3 ADD SWAP1 POP SWAP3 SWAP2 POP POP JUMP JUMPDEST PUSH1 0x0 PUSH2 0xCAD DUP3 PUSH2 0xD6A JUMP JUMPDEST SWAP2 POP PUSH2 0xCB8 DUP4 PUSH2 0xD6A JUMP JUMPDEST SWAP3 POP DUP3 PUSH32 0xFFFFFFFFFFFFFFFFFFFFFFFFFFFFFFFFFFFFFFFFFFFFFFFFFFFFFFFFFFFFFFFF SUB DUP3 GT ISZERO PUSH2 0xCED JUMPI PUSH2 0xCEC PUSH2 0xDD9 JUMP JUMPDEST JUMPDEST DUP3 DUP3 ADD SWAP1 POP SWAP3 SWAP2 POP POP JUMP JUMPDEST PUSH1 0x0 PUSH2 0xD03 DUP3 PUSH2 0xD6A JUMP JUMPDEST SWAP2 POP PUSH2 0xD0E DUP4 PUSH2 0xD6A JUMP JUMPDEST SWAP3 POP DUP3 DUP3 LT ISZERO PUSH2 0xD21 JUMPI PUSH2 0xD20 PUSH2 0xDD9 JUMP JUMPDEST JUMPDEST DUP3 DUP3 SUB SWAP1 POP SWAP3 SWAP2 POP POP JUMP JUMPDEST PUSH1 0x0 PUSH2 0xD37 DUP3 PUSH2 0xD4A JUMP JUMPDEST SWAP1 POP SWAP2 SWAP1 POP JUMP JUMPDEST PUSH1 0x0 DUP2 ISZERO ISZERO SWAP1 POP SWAP2 SWAP1 POP JUMP JUMPDEST PUSH1 0x0 PUSH20 0xFFFFFFFFFFFFFFFFFFFFFFFFFFFFFFFFFFFFFFFF DUP3 AND SWAP1 POP SWAP2 SWAP1 POP JUMP JUMPDEST PUSH1 0x0 DUP2 SWAP1 POP SWAP2 SWAP1 POP JUMP JUMPDEST PUSH1 0x0 JUMPDEST DUP4 DUP2 LT ISZERO PUSH2 0xD92 JUMPI DUP1 DUP3 ADD MLOAD DUP2 DUP5 ADD MSTORE PUSH1 0x20 DUP2 ADD SWAP1 POP PUSH2 0xD77 JUMP JUMPDEST DUP4 DUP2 GT ISZERO PUSH2 0xDA1 JUMPI PUSH1 0x0 DUP5 DUP5 ADD MSTORE JUMPDEST POP POP POP POP JUMP JUMPDEST PUSH1 0x0 PUSH1 0x2 DUP3 DIV SWAP1 POP PUSH1 0x1 DUP3 AND DUP1 PUSH2 0xDBF JUMPI PUSH1 0x7F DUP3 AND SWAP2 POP JUMPDEST PUSH1 0x20 DUP3 LT DUP2 EQ ISZERO PUSH2 0xDD3 JUMPI PUSH2 0xDD2 PUSH2 0xE08 JUMP JUMPDEST JUMPDEST POP SWAP2 SWAP1 POP JUMP JUMPDEST PUSH32 0x4E487B7100000000000000000000000000000000000000000000000000000000 PUSH1 0x0 MSTORE PUSH1 0x11 PUSH1 0x4 MSTORE PUSH1 0x24 PUSH1 0x0 REVERT JUMPDEST PUSH32 0x4E487B7100000000000000000000000000000000000000000000000000000000 PUSH1 0x0 MSTORE PUSH1 0x22 PUSH1 0x4 MSTORE PUSH1 0x24 PUSH1 0x0 REVERT JUMPDEST PUSH1 0x0 PUSH1 0x1F NOT PUSH1 0x1F DUP4 ADD AND SWAP1 POP SWAP2 SWAP1 POP JUMP JUMPDEST PUSH32 0x62616C616E636520746F6F206C6F770000000000000000000000000000000000 PUSH1 0x0 DUP3 ADD MSTORE POP JUMP JUMPDEST PUSH32 0x496E73756666696369656E742062616C616E6365000000000000000000000000 PUSH1 0x0 DUP3 ADD MSTORE POP JUMP JUMPDEST PUSH32 0x616C6C6F77616E636520746F6F206C6F77000000000000000000000000000000 PUSH1 0x0 DUP3 ADD MSTORE POP JUMP JUMPDEST PUSH2 0xECC DUP2 PUSH2 0xD2C JUMP JUMPDEST DUP2 EQ PUSH2 0xED7 JUMPI PUSH1 0x0 DUP1 REVERT JUMPDEST POP JUMP JUMPDEST PUSH2 0xEE3 DUP2 PUSH2 0xD6A JUMP JUMPDEST DUP2 EQ PUSH2 0xEEE JUMPI PUSH1 0x0 DUP1 REVERT JUMPDEST POP JUMP INVALID LOG2 PUSH5 0x6970667358 0x22 SLT KECCAK256 SHL 0xFC 0xC9 SWAP9 0xEB 0xF8 0xCF SWAP13 DUP11 0xDF SWAP15 PUSH15 0x973BFBD8A7C1622B90E75E1079CCA1 BLOCKHASH DUP10 0x27 0xCF PUSH25 0x64736F6C634300080200330000000000000000000000000000 "
				},
				"gasEstimates": {
					"creation": {
						"codeDepositCost": "775800",
						"executionCost": "infinite",
						"totalCost": "infinite"
					},
					"external": {
						"allowance(address,address)": "infinite",
						"approve(address,uint256)": "infinite",
						"balanceOf(address)": "1585",
						"balances(address)": "1603",
						"burn(uint256)": "infinite",
						"decimals()": "1129",
						"name()": "infinite",
						"symbol()": "infinite",
						"totalSupply()": "1174",
						"transfer(address,uint256)": "infinite",
						"transferFrom(address,address,uint256)": "infinite"
					}
				},
				"methodIdentifiers": {
					"allowance(address,address)": "dd62ed3e",
					"approve(address,uint256)": "095ea7b3",
					"balanceOf(address)": "70a08231",
					"balances(address)": "27e235e3",
					"burn(uint256)": "42966c68",
					"decimals()": "313ce567",
					"name()": "06fdde03",
					"symbol()": "95d89b41",
					"totalSupply()": "18160ddd",
					"transfer(address,uint256)": "a9059cbb",
					"transferFrom(address,address,uint256)": "23b872dd"
				}
			},
			"storageLayout": {
				"storage": [
					{
						"astId": 5,
						"contract": "contracts/Token.sol:BuddyToken",
						"label": "balances",
						"offset": 0,
						"slot": "0",
						"type": "t_mapping(t_address,t_uint256)"
					},
					{
						"astId": 11,
						"contract": "contracts/Token.sol:BuddyToken",
						"label": "allowance",
						"offset": 0,
						"slot": "1",
						"type": "t_mapping(t_address,t_mapping(t_address,t_uint256))"
					},
					{
						"astId": 18,
						"contract": "contracts/Token.sol:BuddyToken",
						"label": "totalSupply",
						"offset": 0,
						"slot": "2",
						"type": "t_uint256"
					},
					{
						"astId": 21,
						"contract": "contracts/Token.sol:BuddyToken",
						"label": "name",
						"offset": 0,
						"slot": "3",
						"type": "t_string_storage"
					},
					{
						"astId": 24,
						"contract": "contracts/Token.sol:BuddyToken",
						"label": "symbol",
						"offset": 0,
						"slot": "4",
						"type": "t_string_storage"
					},
					{
						"astId": 27,
						"contract": "contracts/Token.sol:BuddyToken",
						"label": "decimals",
						"offset": 0,
						"slot": "5",
						"type": "t_uint256"
					}
				],
				"types": {
					"t_address": {
						"encoding": "inplace",
						"label": "address",
						"numberOfBytes": "20"
					},
					"t_mapping(t_address,t_mapping(t_address,t_uint256))": {
						"encoding": "mapping",
						"key": "t_address",
						"label": "mapping(address => mapping(address => uint256))",
						"numberOfBytes": "32",
						"value": "t_mapping(t_address,t_uint256)"
					},
					"t_mapping(t_address,t_uint256)": {
						"encoding": "mapping",
						"key": "t_address",
						"label": "mapping(address => uint256)",
						"numberOfBytes": "32",
						"value": "t_uint256"
					},
					"t_string_storage": {
						"encoding": "bytes",
						"label": "string",
						"numberOfBytes": "32"
					},
					"t_uint256": {
						"encoding": "inplace",
						"label": "uint256",
						"numberOfBytes": "32"
					}
				}
			},
			"userdoc": {
				"kind": "user",
				"methods": {},
				"version": 1
			}
		}
	}
}